{
	"data": {
		"bytecode": {
			"linkReferences": {},
			"object": "6080604052348015600e575f80fd5b506108018061001c5f395ff3fe608060405234801561000f575f80fd5b5060043610610038575f3560e01c8063a444f5e9146100ae578063c0406226146100de57610039565b5b7f39684f4c14ee0aafaa34ed83629676cd0fbe71653659c3353ef0c33f630e7eab60405161006690610534565b60405180910390a16100ac6040518060400160405280601281526020017f2d2d2d2d2d2d2d2d2d2d66616c6c6261636b00000000000000000000000000008152506100fc565b005b6100c860048036038101906100c39190610589565b610195565b6040516100d59190610614565b60405180910390f35b6100e66101f6565b6040516100f39190610614565b60405180910390f35b610192816040516024016101109190610614565b6040516020818303038152906040527f41304fac000000000000000000000000000000000000000000000000000000007bffffffffffffffffffffffffffffffffffffffffffffffffffffffff19166020820180517bffffffffffffffffffffffffffffffffffffffffffffffffffffffff8381831617835250505050610271565b50565b60606101c76101a38361028b565b6040516020016101b391906106b8565b6040516020818303038152906040526100fc565b6101d08261028b565b6040516020016101e09190610723565b6040516020818303038152906040529050919050565b60606102366040518060400160405280600c81526020017f2d2d2d2d2d2d2d2d2d72756e00000000000000000000000000000000000000008152506100fc565b6040518060400160405280600381526020017f72756e0000000000000000000000000000000000000000000000000000000000815250905090565b61028881610280610355610374565b63ffffffff16565b50565b60605f60016102998461037f565b0190505f8167ffffffffffffffff8111156102b7576102b6610744565b5b6040519080825280601f01601f1916602001820160405280156102e95781602001600182028036833780820191505090505b5090505f82602001820190505b60011561034a578080600190039150507f3031323334353637383961626364656600000000000000000000000000000000600a86061a8153600a858161033f5761033e610771565b5b0494505f85036102f6575b819350505050919050565b5f6a636f6e736f6c652e6c6f6790505f80835160208501845afa505050565b6104d0819050919050565b5f805f90507a184f03e93ff9f4daa797ed6e38ed64bf6a1f01000000000000000083106103db577a184f03e93ff9f4daa797ed6e38ed64bf6a1f01000000000000000083816103d1576103d0610771565b5b0492506040810190505b6d04ee2d6d415b85acef81000000008310610418576d04ee2d6d415b85acef8100000000838161040e5761040d610771565b5b0492506020810190505b662386f26fc10000831061044757662386f26fc10000838161043d5761043c610771565b5b0492506010810190505b6305f5e1008310610470576305f5e100838161046657610465610771565b5b0492506008810190505b612710831061049557612710838161048b5761048a610771565b5b0492506004810190505b606483106104b857606483816104ae576104ad610771565b5b0492506002810190505b600a83106104c7576001810190505b80915050919050565b6104d861079e565b565b5f82825260208201905092915050565b7f66616c6c6261636b0000000000000000000000000000000000000000000000005f82015250565b5f61051e6008836104da565b9150610529826104ea565b602082019050919050565b5f6020820190508181035f83015261054b81610512565b9050919050565b5f80fd5b5f819050919050565b61056881610556565b8114610572575f80fd5b50565b5f813590506105838161055f565b92915050565b5f6020828403121561059e5761059d610552565b5b5f6105ab84828501610575565b91505092915050565b5f81519050919050565b8281835e5f83830152505050565b5f601f19601f8301169050919050565b5f6105e6826105b4565b6105f081856104da565b93506106008185602086016105be565b610609816105cc565b840191505092915050565b5f6020820190508181035f83015261062c81846105dc565b905092915050565b5f81905092915050565b7f2d2d2d2d2d2d2d2d2d72756e00000000000000000000000000000000000000005f82015250565b5f610672600c83610634565b915061067d8261063e565b600c82019050919050565b5f610692826105b4565b61069c8185610634565b93506106ac8185602086016105be565b80840191505092915050565b5f6106c282610666565b91506106ce8284610688565b915081905092915050565b7f72756e3a000000000000000000000000000000000000000000000000000000005f82015250565b5f61070d600483610634565b9150610718826106d9565b600482019050919050565b5f61072d82610701565b91506107398284610688565b915081905092915050565b7f4e487b71000000000000000000000000000000000000000000000000000000005f52604160045260245ffd5b7f4e487b71000000000000000000000000000000000000000000000000000000005f52601260045260245ffd5b7f4e487b71000000000000000000000000000000000000000000000000000000005f52605160045260245ffdfea2646970667358221220d0164c6a240d21fd7f60fa98f6db8a1bebc39f40eda49cd643f1ab1dd32f6fa664736f6c634300081a0033",
			"opcodes": "PUSH1 0x80 PUSH1 0x40 MSTORE CALLVALUE DUP1 ISZERO PUSH1 0xE JUMPI PUSH0 DUP1 REVERT JUMPDEST POP PUSH2 0x801 DUP1 PUSH2 0x1C PUSH0 CODECOPY PUSH0 RETURN INVALID PUSH1 0x80 PUSH1 0x40 MSTORE CALLVALUE DUP1 ISZERO PUSH2 0xF JUMPI PUSH0 DUP1 REVERT JUMPDEST POP PUSH1 0x4 CALLDATASIZE LT PUSH2 0x38 JUMPI PUSH0 CALLDATALOAD PUSH1 0xE0 SHR DUP1 PUSH4 0xA444F5E9 EQ PUSH2 0xAE JUMPI DUP1 PUSH4 0xC0406226 EQ PUSH2 0xDE JUMPI PUSH2 0x39 JUMP JUMPDEST JUMPDEST PUSH32 0x39684F4C14EE0AAFAA34ED83629676CD0FBE71653659C3353EF0C33F630E7EAB PUSH1 0x40 MLOAD PUSH2 0x66 SWAP1 PUSH2 0x534 JUMP JUMPDEST PUSH1 0x40 MLOAD DUP1 SWAP2 SUB SWAP1 LOG1 PUSH2 0xAC PUSH1 0x40 MLOAD DUP1 PUSH1 0x40 ADD PUSH1 0x40 MSTORE DUP1 PUSH1 0x12 DUP2 MSTORE PUSH1 0x20 ADD PUSH32 0x2D2D2D2D2D2D2D2D2D2D66616C6C6261636B0000000000000000000000000000 DUP2 MSTORE POP PUSH2 0xFC JUMP JUMPDEST STOP JUMPDEST PUSH2 0xC8 PUSH1 0x4 DUP1 CALLDATASIZE SUB DUP2 ADD SWAP1 PUSH2 0xC3 SWAP2 SWAP1 PUSH2 0x589 JUMP JUMPDEST PUSH2 0x195 JUMP JUMPDEST PUSH1 0x40 MLOAD PUSH2 0xD5 SWAP2 SWAP1 PUSH2 0x614 JUMP JUMPDEST PUSH1 0x40 MLOAD DUP1 SWAP2 SUB SWAP1 RETURN JUMPDEST PUSH2 0xE6 PUSH2 0x1F6 JUMP JUMPDEST PUSH1 0x40 MLOAD PUSH2 0xF3 SWAP2 SWAP1 PUSH2 0x614 JUMP JUMPDEST PUSH1 0x40 MLOAD DUP1 SWAP2 SUB SWAP1 RETURN JUMPDEST PUSH2 0x192 DUP2 PUSH1 0x40 MLOAD PUSH1 0x24 ADD PUSH2 0x110 SWAP2 SWAP1 PUSH2 0x614 JUMP JUMPDEST PUSH1 0x40 MLOAD PUSH1 0x20 DUP2 DUP4 SUB SUB DUP2 MSTORE SWAP1 PUSH1 0x40 MSTORE PUSH32 0x41304FAC00000000000000000000000000000000000000000000000000000000 PUSH28 0xFFFFFFFFFFFFFFFFFFFFFFFFFFFFFFFFFFFFFFFFFFFFFFFFFFFFFFFF NOT AND PUSH1 0x20 DUP3 ADD DUP1 MLOAD PUSH28 0xFFFFFFFFFFFFFFFFFFFFFFFFFFFFFFFFFFFFFFFFFFFFFFFFFFFFFFFF DUP4 DUP2 DUP4 AND OR DUP4 MSTORE POP POP POP POP PUSH2 0x271 JUMP JUMPDEST POP JUMP JUMPDEST PUSH1 0x60 PUSH2 0x1C7 PUSH2 0x1A3 DUP4 PUSH2 0x28B JUMP JUMPDEST PUSH1 0x40 MLOAD PUSH1 0x20 ADD PUSH2 0x1B3 SWAP2 SWAP1 PUSH2 0x6B8 JUMP JUMPDEST PUSH1 0x40 MLOAD PUSH1 0x20 DUP2 DUP4 SUB SUB DUP2 MSTORE SWAP1 PUSH1 0x40 MSTORE PUSH2 0xFC JUMP JUMPDEST PUSH2 0x1D0 DUP3 PUSH2 0x28B JUMP JUMPDEST PUSH1 0x40 MLOAD PUSH1 0x20 ADD PUSH2 0x1E0 SWAP2 SWAP1 PUSH2 0x723 JUMP JUMPDEST PUSH1 0x40 MLOAD PUSH1 0x20 DUP2 DUP4 SUB SUB DUP2 MSTORE SWAP1 PUSH1 0x40 MSTORE SWAP1 POP SWAP2 SWAP1 POP JUMP JUMPDEST PUSH1 0x60 PUSH2 0x236 PUSH1 0x40 MLOAD DUP1 PUSH1 0x40 ADD PUSH1 0x40 MSTORE DUP1 PUSH1 0xC DUP2 MSTORE PUSH1 0x20 ADD PUSH32 0x2D2D2D2D2D2D2D2D2D72756E0000000000000000000000000000000000000000 DUP2 MSTORE POP PUSH2 0xFC JUMP JUMPDEST PUSH1 0x40 MLOAD DUP1 PUSH1 0x40 ADD PUSH1 0x40 MSTORE DUP1 PUSH1 0x3 DUP2 MSTORE PUSH1 0x20 ADD PUSH32 0x72756E0000000000000000000000000000000000000000000000000000000000 DUP2 MSTORE POP SWAP1 POP SWAP1 JUMP JUMPDEST PUSH2 0x288 DUP2 PUSH2 0x280 PUSH2 0x355 PUSH2 0x374 JUMP JUMPDEST PUSH4 0xFFFFFFFF AND JUMP JUMPDEST POP JUMP JUMPDEST PUSH1 0x60 PUSH0 PUSH1 0x1 PUSH2 0x299 DUP5 PUSH2 0x37F JUMP JUMPDEST ADD SWAP1 POP PUSH0 DUP2 PUSH8 0xFFFFFFFFFFFFFFFF DUP2 GT ISZERO PUSH2 0x2B7 JUMPI PUSH2 0x2B6 PUSH2 0x744 JUMP JUMPDEST JUMPDEST PUSH1 0x40 MLOAD SWAP1 DUP1 DUP3 MSTORE DUP1 PUSH1 0x1F ADD PUSH1 0x1F NOT AND PUSH1 0x20 ADD DUP3 ADD PUSH1 0x40 MSTORE DUP1 ISZERO PUSH2 0x2E9 JUMPI DUP2 PUSH1 0x20 ADD PUSH1 0x1 DUP3 MUL DUP1 CALLDATASIZE DUP4 CALLDATACOPY DUP1 DUP3 ADD SWAP2 POP POP SWAP1 POP JUMPDEST POP SWAP1 POP PUSH0 DUP3 PUSH1 0x20 ADD DUP3 ADD SWAP1 POP JUMPDEST PUSH1 0x1 ISZERO PUSH2 0x34A JUMPI DUP1 DUP1 PUSH1 0x1 SWAP1 SUB SWAP2 POP POP PUSH32 0x3031323334353637383961626364656600000000000000000000000000000000 PUSH1 0xA DUP7 MOD BYTE DUP2 MSTORE8 PUSH1 0xA DUP6 DUP2 PUSH2 0x33F JUMPI PUSH2 0x33E PUSH2 0x771 JUMP JUMPDEST JUMPDEST DIV SWAP5 POP PUSH0 DUP6 SUB PUSH2 0x2F6 JUMPI JUMPDEST DUP2 SWAP4 POP POP POP POP SWAP2 SWAP1 POP JUMP JUMPDEST PUSH0 PUSH11 0x636F6E736F6C652E6C6F67 SWAP1 POP PUSH0 DUP1 DUP4 MLOAD PUSH1 0x20 DUP6 ADD DUP5 GAS STATICCALL POP POP POP JUMP JUMPDEST PUSH2 0x4D0 DUP2 SWAP1 POP SWAP2 SWAP1 POP JUMP JUMPDEST PUSH0 DUP1 PUSH0 SWAP1 POP PUSH27 0x184F03E93FF9F4DAA797ED6E38ED64BF6A1F010000000000000000 DUP4 LT PUSH2 0x3DB JUMPI PUSH27 0x184F03E93FF9F4DAA797ED6E38ED64BF6A1F010000000000000000 DUP4 DUP2 PUSH2 0x3D1 JUMPI PUSH2 0x3D0 PUSH2 0x771 JUMP JUMPDEST JUMPDEST DIV SWAP3 POP PUSH1 0x40 DUP2 ADD SWAP1 POP JUMPDEST PUSH14 0x4EE2D6D415B85ACEF8100000000 DUP4 LT PUSH2 0x418 JUMPI PUSH14 0x4EE2D6D415B85ACEF8100000000 DUP4 DUP2 PUSH2 0x40E JUMPI PUSH2 0x40D PUSH2 0x771 JUMP JUMPDEST JUMPDEST DIV SWAP3 POP PUSH1 0x20 DUP2 ADD SWAP1 POP JUMPDEST PUSH7 0x2386F26FC10000 DUP4 LT PUSH2 0x447 JUMPI PUSH7 0x2386F26FC10000 DUP4 DUP2 PUSH2 0x43D JUMPI PUSH2 0x43C PUSH2 0x771 JUMP JUMPDEST JUMPDEST DIV SWAP3 POP PUSH1 0x10 DUP2 ADD SWAP1 POP JUMPDEST PUSH4 0x5F5E100 DUP4 LT PUSH2 0x470 JUMPI PUSH4 0x5F5E100 DUP4 DUP2 PUSH2 0x466 JUMPI PUSH2 0x465 PUSH2 0x771 JUMP JUMPDEST JUMPDEST DIV SWAP3 POP PUSH1 0x8 DUP2 ADD SWAP1 POP JUMPDEST PUSH2 0x2710 DUP4 LT PUSH2 0x495 JUMPI PUSH2 0x2710 DUP4 DUP2 PUSH2 0x48B JUMPI PUSH2 0x48A PUSH2 0x771 JUMP JUMPDEST JUMPDEST DIV SWAP3 POP PUSH1 0x4 DUP2 ADD SWAP1 POP JUMPDEST PUSH1 0x64 DUP4 LT PUSH2 0x4B8 JUMPI PUSH1 0x64 DUP4 DUP2 PUSH2 0x4AE JUMPI PUSH2 0x4AD PUSH2 0x771 JUMP JUMPDEST JUMPDEST DIV SWAP3 POP PUSH1 0x2 DUP2 ADD SWAP1 POP JUMPDEST PUSH1 0xA DUP4 LT PUSH2 0x4C7 JUMPI PUSH1 0x1 DUP2 ADD SWAP1 POP JUMPDEST DUP1 SWAP2 POP POP SWAP2 SWAP1 POP JUMP JUMPDEST PUSH2 0x4D8 PUSH2 0x79E JUMP JUMPDEST JUMP JUMPDEST PUSH0 DUP3 DUP3 MSTORE PUSH1 0x20 DUP3 ADD SWAP1 POP SWAP3 SWAP2 POP POP JUMP JUMPDEST PUSH32 0x66616C6C6261636B000000000000000000000000000000000000000000000000 PUSH0 DUP3 ADD MSTORE POP JUMP JUMPDEST PUSH0 PUSH2 0x51E PUSH1 0x8 DUP4 PUSH2 0x4DA JUMP JUMPDEST SWAP2 POP PUSH2 0x529 DUP3 PUSH2 0x4EA JUMP JUMPDEST PUSH1 0x20 DUP3 ADD SWAP1 POP SWAP2 SWAP1 POP JUMP JUMPDEST PUSH0 PUSH1 0x20 DUP3 ADD SWAP1 POP DUP2 DUP2 SUB PUSH0 DUP4 ADD MSTORE PUSH2 0x54B DUP2 PUSH2 0x512 JUMP JUMPDEST SWAP1 POP SWAP2 SWAP1 POP JUMP JUMPDEST PUSH0 DUP1 REVERT JUMPDEST PUSH0 DUP2 SWAP1 POP SWAP2 SWAP1 POP JUMP JUMPDEST PUSH2 0x568 DUP2 PUSH2 0x556 JUMP JUMPDEST DUP2 EQ PUSH2 0x572 JUMPI PUSH0 DUP1 REVERT JUMPDEST POP JUMP JUMPDEST PUSH0 DUP2 CALLDATALOAD SWAP1 POP PUSH2 0x583 DUP2 PUSH2 0x55F JUMP JUMPDEST SWAP3 SWAP2 POP POP JUMP JUMPDEST PUSH0 PUSH1 0x20 DUP3 DUP5 SUB SLT ISZERO PUSH2 0x59E JUMPI PUSH2 0x59D PUSH2 0x552 JUMP JUMPDEST JUMPDEST PUSH0 PUSH2 0x5AB DUP5 DUP3 DUP6 ADD PUSH2 0x575 JUMP JUMPDEST SWAP2 POP POP SWAP3 SWAP2 POP POP JUMP JUMPDEST PUSH0 DUP2 MLOAD SWAP1 POP SWAP2 SWAP1 POP JUMP JUMPDEST DUP3 DUP2 DUP4 MCOPY PUSH0 DUP4 DUP4 ADD MSTORE POP POP POP JUMP JUMPDEST PUSH0 PUSH1 0x1F NOT PUSH1 0x1F DUP4 ADD AND SWAP1 POP SWAP2 SWAP1 POP JUMP JUMPDEST PUSH0 PUSH2 0x5E6 DUP3 PUSH2 0x5B4 JUMP JUMPDEST PUSH2 0x5F0 DUP2 DUP6 PUSH2 0x4DA JUMP JUMPDEST SWAP4 POP PUSH2 0x600 DUP2 DUP6 PUSH1 0x20 DUP7 ADD PUSH2 0x5BE JUMP JUMPDEST PUSH2 0x609 DUP2 PUSH2 0x5CC JUMP JUMPDEST DUP5 ADD SWAP2 POP POP SWAP3 SWAP2 POP POP JUMP JUMPDEST PUSH0 PUSH1 0x20 DUP3 ADD SWAP1 POP DUP2 DUP2 SUB PUSH0 DUP4 ADD MSTORE PUSH2 0x62C DUP2 DUP5 PUSH2 0x5DC JUMP JUMPDEST SWAP1 POP SWAP3 SWAP2 POP POP JUMP JUMPDEST PUSH0 DUP2 SWAP1 POP SWAP3 SWAP2 POP POP JUMP JUMPDEST PUSH32 0x2D2D2D2D2D2D2D2D2D72756E0000000000000000000000000000000000000000 PUSH0 DUP3 ADD MSTORE POP JUMP JUMPDEST PUSH0 PUSH2 0x672 PUSH1 0xC DUP4 PUSH2 0x634 JUMP JUMPDEST SWAP2 POP PUSH2 0x67D DUP3 PUSH2 0x63E JUMP JUMPDEST PUSH1 0xC DUP3 ADD SWAP1 POP SWAP2 SWAP1 POP JUMP JUMPDEST PUSH0 PUSH2 0x692 DUP3 PUSH2 0x5B4 JUMP JUMPDEST PUSH2 0x69C DUP2 DUP6 PUSH2 0x634 JUMP JUMPDEST SWAP4 POP PUSH2 0x6AC DUP2 DUP6 PUSH1 0x20 DUP7 ADD PUSH2 0x5BE JUMP JUMPDEST DUP1 DUP5 ADD SWAP2 POP POP SWAP3 SWAP2 POP POP JUMP JUMPDEST PUSH0 PUSH2 0x6C2 DUP3 PUSH2 0x666 JUMP JUMPDEST SWAP2 POP PUSH2 0x6CE DUP3 DUP5 PUSH2 0x688 JUMP JUMPDEST SWAP2 POP DUP2 SWAP1 POP SWAP3 SWAP2 POP POP JUMP JUMPDEST PUSH32 0x72756E3A00000000000000000000000000000000000000000000000000000000 PUSH0 DUP3 ADD MSTORE POP JUMP JUMPDEST PUSH0 PUSH2 0x70D PUSH1 0x4 DUP4 PUSH2 0x634 JUMP JUMPDEST SWAP2 POP PUSH2 0x718 DUP3 PUSH2 0x6D9 JUMP JUMPDEST PUSH1 0x4 DUP3 ADD SWAP1 POP SWAP2 SWAP1 POP JUMP JUMPDEST PUSH0 PUSH2 0x72D DUP3 PUSH2 0x701 JUMP JUMPDEST SWAP2 POP PUSH2 0x739 DUP3 DUP5 PUSH2 0x688 JUMP JUMPDEST SWAP2 POP DUP2 SWAP1 POP SWAP3 SWAP2 POP POP JUMP JUMPDEST PUSH32 0x4E487B7100000000000000000000000000000000000000000000000000000000 PUSH0 MSTORE PUSH1 0x41 PUSH1 0x4 MSTORE PUSH1 0x24 PUSH0 REVERT JUMPDEST PUSH32 0x4E487B7100000000000000000000000000000000000000000000000000000000 PUSH0 MSTORE PUSH1 0x12 PUSH1 0x4 MSTORE PUSH1 0x24 PUSH0 REVERT JUMPDEST PUSH32 0x4E487B7100000000000000000000000000000000000000000000000000000000 PUSH0 MSTORE PUSH1 0x51 PUSH1 0x4 MSTORE PUSH1 0x24 PUSH0 REVERT INVALID LOG2 PUSH5 0x6970667358 0x22 SLT KECCAK256 0xD0 AND 0x4C PUSH11 0x240D21FD7F60FA98F6DB8A SHL 0xEB 0xC3 SWAP16 BLOCKHASH 0xED LOG4 SWAP13 0xD6 NUMBER CALL 0xAB SAR 0xD3 0x2F PUSH16 0xA664736F6C634300081A003300000000 "
		},
		"gasEstimates": {
			"creation": {
				"codeDepositCost": "409800",
				"executionCost": "447",
				"totalCost": "410247"
			},
			"external": {
				"": "infinite",
				"run()": "infinite",
				"run(uint256)": "infinite"
			}
		},
		"methodIdentifiers": {
			"run()": "c0406226",
			"run(uint256)": "a444f5e9"
		}
	},
	"abi": [
		{
			"anonymous": false,
			"inputs": [
				{
					"indexed": false,
					"internalType": "string",
					"name": "",
					"type": "string"
				}
			],
			"name": "eventFallback",
			"type": "event"
		},
		{
			"stateMutability": "nonpayable",
			"type": "fallback"
		},
		{
			"inputs": [
				{
					"internalType": "uint256",
					"name": "param",
					"type": "uint256"
				}
			],
			"name": "run",
			"outputs": [
				{
					"internalType": "string",
					"name": "",
					"type": "string"
				}
			],
			"stateMutability": "pure",
			"type": "function"
		},
		{
			"inputs": [],
			"name": "run",
			"outputs": [
				{
					"internalType": "string",
					"name": "",
					"type": "string"
				}
			],
			"stateMutability": "pure",
			"type": "function"
		}
	]
}