{
	"data": {
		"bytecode": {
			"linkReferences": {},
			"object": "6080604052348015600e575f80fd5b506102258061001c5f395ff3fe60806040526004361061002c575f3560e01c806312065fe014610068578063a50ec326146100925761002d565b5b7ff7f75251dee7d7fc22deac3247729ebe7c86541f35930bf10c2a4207479a3b6c333460405161005e929190610189565b60405180910390a1005b348015610073575f80fd5b5061007c61009c565b60405161008991906101d6565b60405180910390f35b61009a6100a3565b005b5f47905090565b565b5f82825260208201905092915050565b7f72656365697665000000000000000000000000000000000000000000000000005f82015250565b5f6100e96007836100a5565b91506100f4826100b5565b602082019050919050565b5f73ffffffffffffffffffffffffffffffffffffffff82169050919050565b5f610128826100ff565b9050919050565b6101388161011e565b82525050565b5f819050919050565b6101508161013e565b82525050565b5f82825260208201905092915050565b50565b5f6101745f83610156565b915061017f82610166565b5f82019050919050565b5f6080820190508181035f8301526101a0816100dd565b90506101af602083018561012f565b6101bc6040830184610147565b81810360608301526101cd81610169565b90509392505050565b5f6020820190506101e95f830184610147565b9291505056fea2646970667358221220a12d5bd98604de6908a061c095ad42e7950f16416d7d03155dfb115399a3659364736f6c634300081a0033",
			"opcodes": "PUSH1 0x80 PUSH1 0x40 MSTORE CALLVALUE DUP1 ISZERO PUSH1 0xE JUMPI PUSH0 DUP1 REVERT JUMPDEST POP PUSH2 0x225 DUP1 PUSH2 0x1C PUSH0 CODECOPY PUSH0 RETURN INVALID PUSH1 0x80 PUSH1 0x40 MSTORE PUSH1 0x4 CALLDATASIZE LT PUSH2 0x2C JUMPI PUSH0 CALLDATALOAD PUSH1 0xE0 SHR DUP1 PUSH4 0x12065FE0 EQ PUSH2 0x68 JUMPI DUP1 PUSH4 0xA50EC326 EQ PUSH2 0x92 JUMPI PUSH2 0x2D JUMP JUMPDEST JUMPDEST PUSH32 0xF7F75251DEE7D7FC22DEAC3247729EBE7C86541F35930BF10C2A4207479A3B6C CALLER CALLVALUE PUSH1 0x40 MLOAD PUSH2 0x5E SWAP3 SWAP2 SWAP1 PUSH2 0x189 JUMP JUMPDEST PUSH1 0x40 MLOAD DUP1 SWAP2 SUB SWAP1 LOG1 STOP JUMPDEST CALLVALUE DUP1 ISZERO PUSH2 0x73 JUMPI PUSH0 DUP1 REVERT JUMPDEST POP PUSH2 0x7C PUSH2 0x9C JUMP JUMPDEST PUSH1 0x40 MLOAD PUSH2 0x89 SWAP2 SWAP1 PUSH2 0x1D6 JUMP JUMPDEST PUSH1 0x40 MLOAD DUP1 SWAP2 SUB SWAP1 RETURN JUMPDEST PUSH2 0x9A PUSH2 0xA3 JUMP JUMPDEST STOP JUMPDEST PUSH0 SELFBALANCE SWAP1 POP SWAP1 JUMP JUMPDEST JUMP JUMPDEST PUSH0 DUP3 DUP3 MSTORE PUSH1 0x20 DUP3 ADD SWAP1 POP SWAP3 SWAP2 POP POP JUMP JUMPDEST PUSH32 0x7265636569766500000000000000000000000000000000000000000000000000 PUSH0 DUP3 ADD MSTORE POP JUMP JUMPDEST PUSH0 PUSH2 0xE9 PUSH1 0x7 DUP4 PUSH2 0xA5 JUMP JUMPDEST SWAP2 POP PUSH2 0xF4 DUP3 PUSH2 0xB5 JUMP JUMPDEST PUSH1 0x20 DUP3 ADD SWAP1 POP SWAP2 SWAP1 POP JUMP JUMPDEST PUSH0 PUSH20 0xFFFFFFFFFFFFFFFFFFFFFFFFFFFFFFFFFFFFFFFF DUP3 AND SWAP1 POP SWAP2 SWAP1 POP JUMP JUMPDEST PUSH0 PUSH2 0x128 DUP3 PUSH2 0xFF JUMP JUMPDEST SWAP1 POP SWAP2 SWAP1 POP JUMP JUMPDEST PUSH2 0x138 DUP2 PUSH2 0x11E JUMP JUMPDEST DUP3 MSTORE POP POP JUMP JUMPDEST PUSH0 DUP2 SWAP1 POP SWAP2 SWAP1 POP JUMP JUMPDEST PUSH2 0x150 DUP2 PUSH2 0x13E JUMP JUMPDEST DUP3 MSTORE POP POP JUMP JUMPDEST PUSH0 DUP3 DUP3 MSTORE PUSH1 0x20 DUP3 ADD SWAP1 POP SWAP3 SWAP2 POP POP JUMP JUMPDEST POP JUMP JUMPDEST PUSH0 PUSH2 0x174 PUSH0 DUP4 PUSH2 0x156 JUMP JUMPDEST SWAP2 POP PUSH2 0x17F DUP3 PUSH2 0x166 JUMP JUMPDEST PUSH0 DUP3 ADD SWAP1 POP SWAP2 SWAP1 POP JUMP JUMPDEST PUSH0 PUSH1 0x80 DUP3 ADD SWAP1 POP DUP2 DUP2 SUB PUSH0 DUP4 ADD MSTORE PUSH2 0x1A0 DUP2 PUSH2 0xDD JUMP JUMPDEST SWAP1 POP PUSH2 0x1AF PUSH1 0x20 DUP4 ADD DUP6 PUSH2 0x12F JUMP JUMPDEST PUSH2 0x1BC PUSH1 0x40 DUP4 ADD DUP5 PUSH2 0x147 JUMP JUMPDEST DUP2 DUP2 SUB PUSH1 0x60 DUP4 ADD MSTORE PUSH2 0x1CD DUP2 PUSH2 0x169 JUMP JUMPDEST SWAP1 POP SWAP4 SWAP3 POP POP POP JUMP JUMPDEST PUSH0 PUSH1 0x20 DUP3 ADD SWAP1 POP PUSH2 0x1E9 PUSH0 DUP4 ADD DUP5 PUSH2 0x147 JUMP JUMPDEST SWAP3 SWAP2 POP POP JUMP INVALID LOG2 PUSH5 0x6970667358 0x22 SLT KECCAK256 LOG1 0x2D JUMPDEST 0xD9 DUP7 DIV 0xDE PUSH10 0x8A061C095AD42E7950F AND COINBASE PUSH14 0x7D03155DFB115399A3659364736F PUSH13 0x634300081A0033000000000000 "
		},
		"gasEstimates": {
			"creation": {
				"codeDepositCost": "109800",
				"executionCost": "157",
				"totalCost": "109957"
			},
			"external": {
				"": "3357",
				"deposite()": "119",
				"getBalance()": "312"
			}
		},
		"methodIdentifiers": {
			"deposite()": "a50ec326",
			"getBalance()": "12065fe0"
		}
	},
	"abi": [
		{
			"anonymous": false,
			"inputs": [
				{
					"indexed": false,
					"internalType": "string",
					"name": "funame",
					"type": "string"
				},
				{
					"indexed": false,
					"internalType": "address",
					"name": "from",
					"type": "address"
				},
				{
					"indexed": false,
					"internalType": "uint256",
					"name": "value",
					"type": "uint256"
				},
				{
					"indexed": false,
					"internalType": "bytes",
					"name": "data",
					"type": "bytes"
				}
			],
			"name": "Log",
			"type": "event"
		},
		{
			"stateMutability": "payable",
			"type": "fallback"
		},
		{
			"inputs": [],
			"name": "deposite",
			"outputs": [],
			"stateMutability": "payable",
			"type": "function"
		},
		{
			"inputs": [],
			"name": "getBalance",
			"outputs": [
				{
					"internalType": "uint256",
					"name": "",
					"type": "uint256"
				}
			],
			"stateMutability": "view",
			"type": "function"
		}
	]
}