{
	"data": {
		"bytecode": {
			"linkReferences": {},
			"object": "608060405234801561000f575f80fd5b5060405161178138038061178183398181016040528101906100319190610314565b6100766040518060400160405280601b81526020017f4f776e657220636f6e7472616374206465706c6f7965642062793a00000000008152508261009360201b60201c565b81600181905550805f908161008b9190610572565b5050506106eb565b61013182826040516024016100a9929190610689565b6040516020818303038152906040527f4b5c4277000000000000000000000000000000000000000000000000000000007bffffffffffffffffffffffffffffffffffffffffffffffffffffffff19166020820180517bffffffffffffffffffffffffffffffffffffffffffffffffffffffff838183161783525050505061013560201b60201c565b5050565b6101568161015161015960201b6106c91761017860201b60201c565b60201c565b50565b5f6a636f6e736f6c652e6c6f6790505f80835160208501845afa505050565b61018a60201b6108de17819050919050565b6101926106be565b565b5f604051905090565b5f80fd5b5f80fd5b5f819050919050565b6101b7816101a5565b81146101c1575f80fd5b50565b5f815190506101d2816101ae565b92915050565b5f80fd5b5f80fd5b5f601f19601f8301169050919050565b7f4e487b71000000000000000000000000000000000000000000000000000000005f52604160045260245ffd5b610226826101e0565b810181811067ffffffffffffffff82111715610245576102446101f0565b5b80604052505050565b5f610257610194565b9050610263828261021d565b919050565b5f67ffffffffffffffff821115610282576102816101f0565b5b61028b826101e0565b9050602081019050919050565b8281835e5f83830152505050565b5f6102b86102b384610268565b61024e565b9050828152602081018484840111156102d4576102d36101dc565b5b6102df848285610298565b509392505050565b5f82601f8301126102fb576102fa6101d8565b5b815161030b8482602086016102a6565b91505092915050565b5f806040838503121561032a5761032961019d565b5b5f610337858286016101c4565b925050602083015167ffffffffffffffff811115610358576103576101a1565b5b610364858286016102e7565b9150509250929050565b5f81519050919050565b7f4e487b71000000000000000000000000000000000000000000000000000000005f52602260045260245ffd5b5f60028204905060018216806103bc57607f821691505b6020821081036103cf576103ce610378565b5b50919050565b5f819050815f5260205f209050919050565b5f6020601f8301049050919050565b5f82821b905092915050565b5f600883026104317fffffffffffffffffffffffffffffffffffffffffffffffffffffffffffffffff826103f6565b61043b86836103f6565b95508019841693508086168417925050509392505050565b5f819050919050565b5f61047661047161046c846101a5565b610453565b6101a5565b9050919050565b5f819050919050565b61048f8361045c565b6104a361049b8261047d565b848454610402565b825550505050565b5f90565b6104b76104ab565b6104c2818484610486565b505050565b5b818110156104e5576104da5f826104af565b6001810190506104c8565b5050565b601f82111561052a576104fb816103d5565b610504846103e7565b81016020851015610513578190505b61052761051f856103e7565b8301826104c7565b50505b505050565b5f82821c905092915050565b5f61054a5f198460080261052f565b1980831691505092915050565b5f610562838361053b565b9150826002028217905092915050565b61057b8261036e565b67ffffffffffffffff811115610594576105936101f0565b5b61059e82546103a5565b6105a98282856104e9565b5f60209050601f8311600181146105da575f84156105c8578287015190505b6105d28582610557565b865550610639565b601f1984166105e8866103d5565b5f5b8281101561060f578489015182556001820191506020850194506020810190506105ea565b8683101561062c5784890151610628601f89168261053b565b8355505b6001600288020188555050505b505050505050565b5f82825260208201905092915050565b5f61065b8261036e565b6106658185610641565b9350610675818560208601610298565b61067e816101e0565b840191505092915050565b5f6040820190508181035f8301526106a18185610651565b905081810360208301526106b58184610651565b90509392505050565b7f4e487b71000000000000000000000000000000000000000000000000000000005f52605160045260245ffd5b611089806106f85f395ff3fe608060405234801561000f575f80fd5b50600436106100a6575f3560e01c806373bb329c1161006f57806373bb329c1461013e57806378f2650c1461015c578063971f7b911461017a578063cdc55d5914610198578063f5f5ba72146101b6578063fa07a683146101d4576100a6565b8062c194db146100aa57806306fdde03146100c85780632095f3ac146100e657806325d545d114610104578063262a9dff14610120575b5f80fd5b6100b26101f2565b6040516100bf9190610970565b60405180910390f35b6100d061021d565b6040516100dd91906109e2565b60405180910390f35b6100ee6102a8565b6040516100fb9190610970565b60405180910390f35b61011e60048036038101906101199190610b3f565b6102d3565b005b6101286103ab565b6040516101359190610b9e565b60405180910390f35b6101466103b1565b6040516101539190610bf6565b60405180910390f35b610164610424565b6040516101719190610bf6565b60405180910390f35b61018261042b565b60405161018f9190610bf6565b60405180910390f35b6101a0610450565b6040516101ad91906109e2565b60405180910390f35b6101be610624565b6040516101cb91906109e2565b60405180910390f35b6101dc610661565b6040516101e99190610bf6565b60405180910390f35b606060405180602001610204906108e8565b6020820181038252601f19601f82011660405250905090565b5f805461022990610c3c565b80601f016020809104026020016040519081016040528092919081815260200182805461025590610c3c565b80156102a05780601f10610277576101008083540402835291602001916102a0565b820191905f5260205f20905b81548152906001019060200180831161028357829003601f168201915b505050505081565b6060604051806020016102ba906108f4565b6020820181038252601f19601f82011660405250905090565b805f90816102e19190610e09565b506103a86040518060400160405280601981526020017f6e616d6520686173206265656e206368616e67656420746f20000000000000008152505f805461032790610c3c565b80601f016020809104026020016040519081016040528092919081815260200182805461035390610c3c565b801561039e5780601f106103755761010080835404028352916020019161039e565b820191905f5260205f20905b81548152906001019060200180831161038157829003601f168201915b50505050506106e8565b50565b60015481565b5f3073ffffffffffffffffffffffffffffffffffffffff166378f2650c6040518163ffffffff1660e01b8152600401602060405180830381865afa1580156103fb573d5f803e3d5ffd5b505050506040513d601f19601f8201168201806040525081019061041f9190610f02565b905090565b5f30905090565b60025f9054906101000a900473ffffffffffffffffffffffffffffffffffffffff1681565b60606104906040518060400160405280600b81526020017f68656c6c6f20776f726c64000000000000000000000000000000000000000000815250610784565b6105566040518060400160405280600581526020017f6e616d653a0000000000000000000000000000000000000000000000000000008152505f80546104d590610c3c565b80601f016020809104026020016040519081016040528092919081815260200182805461050190610c3c565b801561054c5780601f106105235761010080835404028352916020019161054c565b820191905f5260205f20905b81548152906001019060200180831161052f57829003601f168201915b50505050506106e8565b6105976040518060400160405280600481526020017f6167653a0000000000000000000000000000000000000000000000000000000081525060015461081d565b5f80546105a390610c3c565b80601f01602080910402602001604051908101604052809291908181526020018280546105cf90610c3c565b801561061a5780601f106105f15761010080835404028352916020019161061a565b820191905f5260205f20905b8154815290600101906020018083116105fd57829003601f168201915b5050505050905090565b60606040518060400160405260088152806020017f5479706554657374000000000000000000000000000000000000000000000000815250905090565b5f3360025f6101000a81548173ffffffffffffffffffffffffffffffffffffffff021916908373ffffffffffffffffffffffffffffffffffffffff16021790555060025f9054906101000a900473ffffffffffffffffffffffffffffffffffffffff16905090565b5f6a636f6e736f6c652e6c6f6790505f80835160208501845afa505050565b61078082826040516024016106fe929190610f2d565b6040516020818303038152906040527f4b5c4277000000000000000000000000000000000000000000000000000000007bffffffffffffffffffffffffffffffffffffffffffffffffffffffff19166020820180517bffffffffffffffffffffffffffffffffffffffffffffffffffffffff83818316178352505050506108b9565b5050565b61081a8160405160240161079891906109e2565b6040516020818303038152906040527f41304fac000000000000000000000000000000000000000000000000000000007bffffffffffffffffffffffffffffffffffffffffffffffffffffffff19166020820180517bffffffffffffffffffffffffffffffffffffffffffffffffffffffff83818316178352505050506108b9565b50565b6108b58282604051602401610833929190610f62565b6040516020818303038152906040527fb60e72cc000000000000000000000000000000000000000000000000000000007bffffffffffffffffffffffffffffffffffffffffffffffffffffffff19166020820180517bffffffffffffffffffffffffffffffffffffffffffffffffffffffff83818316178352505050506108b9565b5050565b6108d0816108c86106c96108d3565b63ffffffff16565b50565b6108de819050919050565b6108e6610f90565b565b605880610fbe83390190565b603e8061101683390190565b5f81519050919050565b5f82825260208201905092915050565b8281835e5f83830152505050565b5f601f19601f8301169050919050565b5f61094282610900565b61094c818561090a565b935061095c81856020860161091a565b61096581610928565b840191505092915050565b5f6020820190508181035f8301526109888184610938565b905092915050565b5f81519050919050565b5f82825260208201905092915050565b5f6109b482610990565b6109be818561099a565b93506109ce81856020860161091a565b6109d781610928565b840191505092915050565b5f6020820190508181035f8301526109fa81846109aa565b905092915050565b5f604051905090565b5f80fd5b5f80fd5b5f80fd5b5f80fd5b7f4e487b71000000000000000000000000000000000000000000000000000000005f52604160045260245ffd5b610a5182610928565b810181811067ffffffffffffffff82111715610a7057610a6f610a1b565b5b80604052505050565b5f610a82610a02565b9050610a8e8282610a48565b919050565b5f67ffffffffffffffff821115610aad57610aac610a1b565b5b610ab682610928565b9050602081019050919050565b828183375f83830152505050565b5f610ae3610ade84610a93565b610a79565b905082815260208101848484011115610aff57610afe610a17565b5b610b0a848285610ac3565b509392505050565b5f82601f830112610b2657610b25610a13565b5b8135610b36848260208601610ad1565b91505092915050565b5f60208284031215610b5457610b53610a0b565b5b5f82013567ffffffffffffffff811115610b7157610b70610a0f565b5b610b7d84828501610b12565b91505092915050565b5f819050919050565b610b9881610b86565b82525050565b5f602082019050610bb15f830184610b8f565b92915050565b5f73ffffffffffffffffffffffffffffffffffffffff82169050919050565b5f610be082610bb7565b9050919050565b610bf081610bd6565b82525050565b5f602082019050610c095f830184610be7565b92915050565b7f4e487b71000000000000000000000000000000000000000000000000000000005f52602260045260245ffd5b5f6002820490506001821680610c5357607f821691505b602082108103610c6657610c65610c0f565b5b50919050565b5f819050815f5260205f209050919050565b5f6020601f8301049050919050565b5f82821b905092915050565b5f60088302610cc87fffffffffffffffffffffffffffffffffffffffffffffffffffffffffffffffff82610c8d565b610cd28683610c8d565b95508019841693508086168417925050509392505050565b5f819050919050565b5f610d0d610d08610d0384610b86565b610cea565b610b86565b9050919050565b5f819050919050565b610d2683610cf3565b610d3a610d3282610d14565b848454610c99565b825550505050565b5f90565b610d4e610d42565b610d59818484610d1d565b505050565b5b81811015610d7c57610d715f82610d46565b600181019050610d5f565b5050565b601f821115610dc157610d9281610c6c565b610d9b84610c7e565b81016020851015610daa578190505b610dbe610db685610c7e565b830182610d5e565b50505b505050565b5f82821c905092915050565b5f610de15f1984600802610dc6565b1980831691505092915050565b5f610df98383610dd2565b9150826002028217905092915050565b610e1282610990565b67ffffffffffffffff811115610e2b57610e2a610a1b565b5b610e358254610c3c565b610e40828285610d80565b5f60209050601f831160018114610e71575f8415610e5f578287015190505b610e698582610dee565b865550610ed0565b601f198416610e7f86610c6c565b5f5b82811015610ea657848901518255600182019150602085019450602081019050610e81565b86831015610ec35784890151610ebf601f891682610dd2565b8355505b6001600288020188555050505b505050505050565b610ee181610bd6565b8114610eeb575f80fd5b50565b5f81519050610efc81610ed8565b92915050565b5f60208284031215610f1757610f16610a0b565b5b5f610f2484828501610eee565b91505092915050565b5f6040820190508181035f830152610f4581856109aa565b90508181036020830152610f5981846109aa565b90509392505050565b5f6040820190508181035f830152610f7a81856109aa565b9050610f896020830184610b8f565b9392505050565b7f4e487b71000000000000000000000000000000000000000000000000000000005f52605160045260245ffdfe6080604052348015600e575f80fd5b50603e80601a5f395ff3fe60806040525f80fdfea2646970667358221220d583edd0ae048935d4a178f78ce0cd3719e97d60b151d1cd8d40eca4667a198f64736f6c634300081a003360806040525f80fdfea2646970667358221220d583edd0ae048935d4a178f78ce0cd3719e97d60b151d1cd8d40eca4667a198f64736f6c634300081a0033a2646970667358221220b22d189fab4915e47e64a2974a44b45180ecb7f190f65b3d7336ab6290e19f2f64736f6c634300081a0033",
			"opcodes": "PUSH1 0x80 PUSH1 0x40 MSTORE CALLVALUE DUP1 ISZERO PUSH2 0xF JUMPI PUSH0 DUP1 REVERT JUMPDEST POP PUSH1 0x40 MLOAD PUSH2 0x1781 CODESIZE SUB DUP1 PUSH2 0x1781 DUP4 CODECOPY DUP2 DUP2 ADD PUSH1 0x40 MSTORE DUP2 ADD SWAP1 PUSH2 0x31 SWAP2 SWAP1 PUSH2 0x314 JUMP JUMPDEST PUSH2 0x76 PUSH1 0x40 MLOAD DUP1 PUSH1 0x40 ADD PUSH1 0x40 MSTORE DUP1 PUSH1 0x1B DUP2 MSTORE PUSH1 0x20 ADD PUSH32 0x4F776E657220636F6E7472616374206465706C6F7965642062793A0000000000 DUP2 MSTORE POP DUP3 PUSH2 0x93 PUSH1 0x20 SHL PUSH1 0x20 SHR JUMP JUMPDEST DUP2 PUSH1 0x1 DUP2 SWAP1 SSTORE POP DUP1 PUSH0 SWAP1 DUP2 PUSH2 0x8B SWAP2 SWAP1 PUSH2 0x572 JUMP JUMPDEST POP POP POP PUSH2 0x6EB JUMP JUMPDEST PUSH2 0x131 DUP3 DUP3 PUSH1 0x40 MLOAD PUSH1 0x24 ADD PUSH2 0xA9 SWAP3 SWAP2 SWAP1 PUSH2 0x689 JUMP JUMPDEST PUSH1 0x40 MLOAD PUSH1 0x20 DUP2 DUP4 SUB SUB DUP2 MSTORE SWAP1 PUSH1 0x40 MSTORE PUSH32 0x4B5C427700000000000000000000000000000000000000000000000000000000 PUSH28 0xFFFFFFFFFFFFFFFFFFFFFFFFFFFFFFFFFFFFFFFFFFFFFFFFFFFFFFFF NOT AND PUSH1 0x20 DUP3 ADD DUP1 MLOAD PUSH28 0xFFFFFFFFFFFFFFFFFFFFFFFFFFFFFFFFFFFFFFFFFFFFFFFFFFFFFFFF DUP4 DUP2 DUP4 AND OR DUP4 MSTORE POP POP POP POP PUSH2 0x135 PUSH1 0x20 SHL PUSH1 0x20 SHR JUMP JUMPDEST POP POP JUMP JUMPDEST PUSH2 0x156 DUP2 PUSH2 0x151 PUSH2 0x159 PUSH1 0x20 SHL PUSH2 0x6C9 OR PUSH2 0x178 PUSH1 0x20 SHL PUSH1 0x20 SHR JUMP JUMPDEST PUSH1 0x20 SHR JUMP JUMPDEST POP JUMP JUMPDEST PUSH0 PUSH11 0x636F6E736F6C652E6C6F67 SWAP1 POP PUSH0 DUP1 DUP4 MLOAD PUSH1 0x20 DUP6 ADD DUP5 GAS STATICCALL POP POP POP JUMP JUMPDEST PUSH2 0x18A PUSH1 0x20 SHL PUSH2 0x8DE OR DUP2 SWAP1 POP SWAP2 SWAP1 POP JUMP JUMPDEST PUSH2 0x192 PUSH2 0x6BE JUMP JUMPDEST JUMP JUMPDEST PUSH0 PUSH1 0x40 MLOAD SWAP1 POP SWAP1 JUMP JUMPDEST PUSH0 DUP1 REVERT JUMPDEST PUSH0 DUP1 REVERT JUMPDEST PUSH0 DUP2 SWAP1 POP SWAP2 SWAP1 POP JUMP JUMPDEST PUSH2 0x1B7 DUP2 PUSH2 0x1A5 JUMP JUMPDEST DUP2 EQ PUSH2 0x1C1 JUMPI PUSH0 DUP1 REVERT JUMPDEST POP JUMP JUMPDEST PUSH0 DUP2 MLOAD SWAP1 POP PUSH2 0x1D2 DUP2 PUSH2 0x1AE JUMP JUMPDEST SWAP3 SWAP2 POP POP JUMP JUMPDEST PUSH0 DUP1 REVERT JUMPDEST PUSH0 DUP1 REVERT JUMPDEST PUSH0 PUSH1 0x1F NOT PUSH1 0x1F DUP4 ADD AND SWAP1 POP SWAP2 SWAP1 POP JUMP JUMPDEST PUSH32 0x4E487B7100000000000000000000000000000000000000000000000000000000 PUSH0 MSTORE PUSH1 0x41 PUSH1 0x4 MSTORE PUSH1 0x24 PUSH0 REVERT JUMPDEST PUSH2 0x226 DUP3 PUSH2 0x1E0 JUMP JUMPDEST DUP2 ADD DUP2 DUP2 LT PUSH8 0xFFFFFFFFFFFFFFFF DUP3 GT OR ISZERO PUSH2 0x245 JUMPI PUSH2 0x244 PUSH2 0x1F0 JUMP JUMPDEST JUMPDEST DUP1 PUSH1 0x40 MSTORE POP POP POP JUMP JUMPDEST PUSH0 PUSH2 0x257 PUSH2 0x194 JUMP JUMPDEST SWAP1 POP PUSH2 0x263 DUP3 DUP3 PUSH2 0x21D JUMP JUMPDEST SWAP2 SWAP1 POP JUMP JUMPDEST PUSH0 PUSH8 0xFFFFFFFFFFFFFFFF DUP3 GT ISZERO PUSH2 0x282 JUMPI PUSH2 0x281 PUSH2 0x1F0 JUMP JUMPDEST JUMPDEST PUSH2 0x28B DUP3 PUSH2 0x1E0 JUMP JUMPDEST SWAP1 POP PUSH1 0x20 DUP2 ADD SWAP1 POP SWAP2 SWAP1 POP JUMP JUMPDEST DUP3 DUP2 DUP4 MCOPY PUSH0 DUP4 DUP4 ADD MSTORE POP POP POP JUMP JUMPDEST PUSH0 PUSH2 0x2B8 PUSH2 0x2B3 DUP5 PUSH2 0x268 JUMP JUMPDEST PUSH2 0x24E JUMP JUMPDEST SWAP1 POP DUP3 DUP2 MSTORE PUSH1 0x20 DUP2 ADD DUP5 DUP5 DUP5 ADD GT ISZERO PUSH2 0x2D4 JUMPI PUSH2 0x2D3 PUSH2 0x1DC JUMP JUMPDEST JUMPDEST PUSH2 0x2DF DUP5 DUP3 DUP6 PUSH2 0x298 JUMP JUMPDEST POP SWAP4 SWAP3 POP POP POP JUMP JUMPDEST PUSH0 DUP3 PUSH1 0x1F DUP4 ADD SLT PUSH2 0x2FB JUMPI PUSH2 0x2FA PUSH2 0x1D8 JUMP JUMPDEST JUMPDEST DUP2 MLOAD PUSH2 0x30B DUP5 DUP3 PUSH1 0x20 DUP7 ADD PUSH2 0x2A6 JUMP JUMPDEST SWAP2 POP POP SWAP3 SWAP2 POP POP JUMP JUMPDEST PUSH0 DUP1 PUSH1 0x40 DUP4 DUP6 SUB SLT ISZERO PUSH2 0x32A JUMPI PUSH2 0x329 PUSH2 0x19D JUMP JUMPDEST JUMPDEST PUSH0 PUSH2 0x337 DUP6 DUP3 DUP7 ADD PUSH2 0x1C4 JUMP JUMPDEST SWAP3 POP POP PUSH1 0x20 DUP4 ADD MLOAD PUSH8 0xFFFFFFFFFFFFFFFF DUP2 GT ISZERO PUSH2 0x358 JUMPI PUSH2 0x357 PUSH2 0x1A1 JUMP JUMPDEST JUMPDEST PUSH2 0x364 DUP6 DUP3 DUP7 ADD PUSH2 0x2E7 JUMP JUMPDEST SWAP2 POP POP SWAP3 POP SWAP3 SWAP1 POP JUMP JUMPDEST PUSH0 DUP2 MLOAD SWAP1 POP SWAP2 SWAP1 POP JUMP JUMPDEST PUSH32 0x4E487B7100000000000000000000000000000000000000000000000000000000 PUSH0 MSTORE PUSH1 0x22 PUSH1 0x4 MSTORE PUSH1 0x24 PUSH0 REVERT JUMPDEST PUSH0 PUSH1 0x2 DUP3 DIV SWAP1 POP PUSH1 0x1 DUP3 AND DUP1 PUSH2 0x3BC JUMPI PUSH1 0x7F DUP3 AND SWAP2 POP JUMPDEST PUSH1 0x20 DUP3 LT DUP2 SUB PUSH2 0x3CF JUMPI PUSH2 0x3CE PUSH2 0x378 JUMP JUMPDEST JUMPDEST POP SWAP2 SWAP1 POP JUMP JUMPDEST PUSH0 DUP2 SWAP1 POP DUP2 PUSH0 MSTORE PUSH1 0x20 PUSH0 KECCAK256 SWAP1 POP SWAP2 SWAP1 POP JUMP JUMPDEST PUSH0 PUSH1 0x20 PUSH1 0x1F DUP4 ADD DIV SWAP1 POP SWAP2 SWAP1 POP JUMP JUMPDEST PUSH0 DUP3 DUP3 SHL SWAP1 POP SWAP3 SWAP2 POP POP JUMP JUMPDEST PUSH0 PUSH1 0x8 DUP4 MUL PUSH2 0x431 PUSH32 0xFFFFFFFFFFFFFFFFFFFFFFFFFFFFFFFFFFFFFFFFFFFFFFFFFFFFFFFFFFFFFFFF DUP3 PUSH2 0x3F6 JUMP JUMPDEST PUSH2 0x43B DUP7 DUP4 PUSH2 0x3F6 JUMP JUMPDEST SWAP6 POP DUP1 NOT DUP5 AND SWAP4 POP DUP1 DUP7 AND DUP5 OR SWAP3 POP POP POP SWAP4 SWAP3 POP POP POP JUMP JUMPDEST PUSH0 DUP2 SWAP1 POP SWAP2 SWAP1 POP JUMP JUMPDEST PUSH0 PUSH2 0x476 PUSH2 0x471 PUSH2 0x46C DUP5 PUSH2 0x1A5 JUMP JUMPDEST PUSH2 0x453 JUMP JUMPDEST PUSH2 0x1A5 JUMP JUMPDEST SWAP1 POP SWAP2 SWAP1 POP JUMP JUMPDEST PUSH0 DUP2 SWAP1 POP SWAP2 SWAP1 POP JUMP JUMPDEST PUSH2 0x48F DUP4 PUSH2 0x45C JUMP JUMPDEST PUSH2 0x4A3 PUSH2 0x49B DUP3 PUSH2 0x47D JUMP JUMPDEST DUP5 DUP5 SLOAD PUSH2 0x402 JUMP JUMPDEST DUP3 SSTORE POP POP POP POP JUMP JUMPDEST PUSH0 SWAP1 JUMP JUMPDEST PUSH2 0x4B7 PUSH2 0x4AB JUMP JUMPDEST PUSH2 0x4C2 DUP2 DUP5 DUP5 PUSH2 0x486 JUMP JUMPDEST POP POP POP JUMP JUMPDEST JUMPDEST DUP2 DUP2 LT ISZERO PUSH2 0x4E5 JUMPI PUSH2 0x4DA PUSH0 DUP3 PUSH2 0x4AF JUMP JUMPDEST PUSH1 0x1 DUP2 ADD SWAP1 POP PUSH2 0x4C8 JUMP JUMPDEST POP POP JUMP JUMPDEST PUSH1 0x1F DUP3 GT ISZERO PUSH2 0x52A JUMPI PUSH2 0x4FB DUP2 PUSH2 0x3D5 JUMP JUMPDEST PUSH2 0x504 DUP5 PUSH2 0x3E7 JUMP JUMPDEST DUP2 ADD PUSH1 0x20 DUP6 LT ISZERO PUSH2 0x513 JUMPI DUP2 SWAP1 POP JUMPDEST PUSH2 0x527 PUSH2 0x51F DUP6 PUSH2 0x3E7 JUMP JUMPDEST DUP4 ADD DUP3 PUSH2 0x4C7 JUMP JUMPDEST POP POP JUMPDEST POP POP POP JUMP JUMPDEST PUSH0 DUP3 DUP3 SHR SWAP1 POP SWAP3 SWAP2 POP POP JUMP JUMPDEST PUSH0 PUSH2 0x54A PUSH0 NOT DUP5 PUSH1 0x8 MUL PUSH2 0x52F JUMP JUMPDEST NOT DUP1 DUP4 AND SWAP2 POP POP SWAP3 SWAP2 POP POP JUMP JUMPDEST PUSH0 PUSH2 0x562 DUP4 DUP4 PUSH2 0x53B JUMP JUMPDEST SWAP2 POP DUP3 PUSH1 0x2 MUL DUP3 OR SWAP1 POP SWAP3 SWAP2 POP POP JUMP JUMPDEST PUSH2 0x57B DUP3 PUSH2 0x36E JUMP JUMPDEST PUSH8 0xFFFFFFFFFFFFFFFF DUP2 GT ISZERO PUSH2 0x594 JUMPI PUSH2 0x593 PUSH2 0x1F0 JUMP JUMPDEST JUMPDEST PUSH2 0x59E DUP3 SLOAD PUSH2 0x3A5 JUMP JUMPDEST PUSH2 0x5A9 DUP3 DUP3 DUP6 PUSH2 0x4E9 JUMP JUMPDEST PUSH0 PUSH1 0x20 SWAP1 POP PUSH1 0x1F DUP4 GT PUSH1 0x1 DUP2 EQ PUSH2 0x5DA JUMPI PUSH0 DUP5 ISZERO PUSH2 0x5C8 JUMPI DUP3 DUP8 ADD MLOAD SWAP1 POP JUMPDEST PUSH2 0x5D2 DUP6 DUP3 PUSH2 0x557 JUMP JUMPDEST DUP7 SSTORE POP PUSH2 0x639 JUMP JUMPDEST PUSH1 0x1F NOT DUP5 AND PUSH2 0x5E8 DUP7 PUSH2 0x3D5 JUMP JUMPDEST PUSH0 JUMPDEST DUP3 DUP2 LT ISZERO PUSH2 0x60F JUMPI DUP5 DUP10 ADD MLOAD DUP3 SSTORE PUSH1 0x1 DUP3 ADD SWAP2 POP PUSH1 0x20 DUP6 ADD SWAP5 POP PUSH1 0x20 DUP2 ADD SWAP1 POP PUSH2 0x5EA JUMP JUMPDEST DUP7 DUP4 LT ISZERO PUSH2 0x62C JUMPI DUP5 DUP10 ADD MLOAD PUSH2 0x628 PUSH1 0x1F DUP10 AND DUP3 PUSH2 0x53B JUMP JUMPDEST DUP4 SSTORE POP JUMPDEST PUSH1 0x1 PUSH1 0x2 DUP9 MUL ADD DUP9 SSTORE POP POP POP JUMPDEST POP POP POP POP POP POP JUMP JUMPDEST PUSH0 DUP3 DUP3 MSTORE PUSH1 0x20 DUP3 ADD SWAP1 POP SWAP3 SWAP2 POP POP JUMP JUMPDEST PUSH0 PUSH2 0x65B DUP3 PUSH2 0x36E JUMP JUMPDEST PUSH2 0x665 DUP2 DUP6 PUSH2 0x641 JUMP JUMPDEST SWAP4 POP PUSH2 0x675 DUP2 DUP6 PUSH1 0x20 DUP7 ADD PUSH2 0x298 JUMP JUMPDEST PUSH2 0x67E DUP2 PUSH2 0x1E0 JUMP JUMPDEST DUP5 ADD SWAP2 POP POP SWAP3 SWAP2 POP POP JUMP JUMPDEST PUSH0 PUSH1 0x40 DUP3 ADD SWAP1 POP DUP2 DUP2 SUB PUSH0 DUP4 ADD MSTORE PUSH2 0x6A1 DUP2 DUP6 PUSH2 0x651 JUMP JUMPDEST SWAP1 POP DUP2 DUP2 SUB PUSH1 0x20 DUP4 ADD MSTORE PUSH2 0x6B5 DUP2 DUP5 PUSH2 0x651 JUMP JUMPDEST SWAP1 POP SWAP4 SWAP3 POP POP POP JUMP JUMPDEST PUSH32 0x4E487B7100000000000000000000000000000000000000000000000000000000 PUSH0 MSTORE PUSH1 0x51 PUSH1 0x4 MSTORE PUSH1 0x24 PUSH0 REVERT JUMPDEST PUSH2 0x1089 DUP1 PUSH2 0x6F8 PUSH0 CODECOPY PUSH0 RETURN INVALID PUSH1 0x80 PUSH1 0x40 MSTORE CALLVALUE DUP1 ISZERO PUSH2 0xF JUMPI PUSH0 DUP1 REVERT JUMPDEST POP PUSH1 0x4 CALLDATASIZE LT PUSH2 0xA6 JUMPI PUSH0 CALLDATALOAD PUSH1 0xE0 SHR DUP1 PUSH4 0x73BB329C GT PUSH2 0x6F JUMPI DUP1 PUSH4 0x73BB329C EQ PUSH2 0x13E JUMPI DUP1 PUSH4 0x78F2650C EQ PUSH2 0x15C JUMPI DUP1 PUSH4 0x971F7B91 EQ PUSH2 0x17A JUMPI DUP1 PUSH4 0xCDC55D59 EQ PUSH2 0x198 JUMPI DUP1 PUSH4 0xF5F5BA72 EQ PUSH2 0x1B6 JUMPI DUP1 PUSH4 0xFA07A683 EQ PUSH2 0x1D4 JUMPI PUSH2 0xA6 JUMP JUMPDEST DUP1 PUSH3 0xC194DB EQ PUSH2 0xAA JUMPI DUP1 PUSH4 0x6FDDE03 EQ PUSH2 0xC8 JUMPI DUP1 PUSH4 0x2095F3AC EQ PUSH2 0xE6 JUMPI DUP1 PUSH4 0x25D545D1 EQ PUSH2 0x104 JUMPI DUP1 PUSH4 0x262A9DFF EQ PUSH2 0x120 JUMPI JUMPDEST PUSH0 DUP1 REVERT JUMPDEST PUSH2 0xB2 PUSH2 0x1F2 JUMP JUMPDEST PUSH1 0x40 MLOAD PUSH2 0xBF SWAP2 SWAP1 PUSH2 0x970 JUMP JUMPDEST PUSH1 0x40 MLOAD DUP1 SWAP2 SUB SWAP1 RETURN JUMPDEST PUSH2 0xD0 PUSH2 0x21D JUMP JUMPDEST PUSH1 0x40 MLOAD PUSH2 0xDD SWAP2 SWAP1 PUSH2 0x9E2 JUMP JUMPDEST PUSH1 0x40 MLOAD DUP1 SWAP2 SUB SWAP1 RETURN JUMPDEST PUSH2 0xEE PUSH2 0x2A8 JUMP JUMPDEST PUSH1 0x40 MLOAD PUSH2 0xFB SWAP2 SWAP1 PUSH2 0x970 JUMP JUMPDEST PUSH1 0x40 MLOAD DUP1 SWAP2 SUB SWAP1 RETURN JUMPDEST PUSH2 0x11E PUSH1 0x4 DUP1 CALLDATASIZE SUB DUP2 ADD SWAP1 PUSH2 0x119 SWAP2 SWAP1 PUSH2 0xB3F JUMP JUMPDEST PUSH2 0x2D3 JUMP JUMPDEST STOP JUMPDEST PUSH2 0x128 PUSH2 0x3AB JUMP JUMPDEST PUSH1 0x40 MLOAD PUSH2 0x135 SWAP2 SWAP1 PUSH2 0xB9E JUMP JUMPDEST PUSH1 0x40 MLOAD DUP1 SWAP2 SUB SWAP1 RETURN JUMPDEST PUSH2 0x146 PUSH2 0x3B1 JUMP JUMPDEST PUSH1 0x40 MLOAD PUSH2 0x153 SWAP2 SWAP1 PUSH2 0xBF6 JUMP JUMPDEST PUSH1 0x40 MLOAD DUP1 SWAP2 SUB SWAP1 RETURN JUMPDEST PUSH2 0x164 PUSH2 0x424 JUMP JUMPDEST PUSH1 0x40 MLOAD PUSH2 0x171 SWAP2 SWAP1 PUSH2 0xBF6 JUMP JUMPDEST PUSH1 0x40 MLOAD DUP1 SWAP2 SUB SWAP1 RETURN JUMPDEST PUSH2 0x182 PUSH2 0x42B JUMP JUMPDEST PUSH1 0x40 MLOAD PUSH2 0x18F SWAP2 SWAP1 PUSH2 0xBF6 JUMP JUMPDEST PUSH1 0x40 MLOAD DUP1 SWAP2 SUB SWAP1 RETURN JUMPDEST PUSH2 0x1A0 PUSH2 0x450 JUMP JUMPDEST PUSH1 0x40 MLOAD PUSH2 0x1AD SWAP2 SWAP1 PUSH2 0x9E2 JUMP JUMPDEST PUSH1 0x40 MLOAD DUP1 SWAP2 SUB SWAP1 RETURN JUMPDEST PUSH2 0x1BE PUSH2 0x624 JUMP JUMPDEST PUSH1 0x40 MLOAD PUSH2 0x1CB SWAP2 SWAP1 PUSH2 0x9E2 JUMP JUMPDEST PUSH1 0x40 MLOAD DUP1 SWAP2 SUB SWAP1 RETURN JUMPDEST PUSH2 0x1DC PUSH2 0x661 JUMP JUMPDEST PUSH1 0x40 MLOAD PUSH2 0x1E9 SWAP2 SWAP1 PUSH2 0xBF6 JUMP JUMPDEST PUSH1 0x40 MLOAD DUP1 SWAP2 SUB SWAP1 RETURN JUMPDEST PUSH1 0x60 PUSH1 0x40 MLOAD DUP1 PUSH1 0x20 ADD PUSH2 0x204 SWAP1 PUSH2 0x8E8 JUMP JUMPDEST PUSH1 0x20 DUP3 ADD DUP2 SUB DUP3 MSTORE PUSH1 0x1F NOT PUSH1 0x1F DUP3 ADD AND PUSH1 0x40 MSTORE POP SWAP1 POP SWAP1 JUMP JUMPDEST PUSH0 DUP1 SLOAD PUSH2 0x229 SWAP1 PUSH2 0xC3C JUMP JUMPDEST DUP1 PUSH1 0x1F ADD PUSH1 0x20 DUP1 SWAP2 DIV MUL PUSH1 0x20 ADD PUSH1 0x40 MLOAD SWAP1 DUP2 ADD PUSH1 0x40 MSTORE DUP1 SWAP3 SWAP2 SWAP1 DUP2 DUP2 MSTORE PUSH1 0x20 ADD DUP3 DUP1 SLOAD PUSH2 0x255 SWAP1 PUSH2 0xC3C JUMP JUMPDEST DUP1 ISZERO PUSH2 0x2A0 JUMPI DUP1 PUSH1 0x1F LT PUSH2 0x277 JUMPI PUSH2 0x100 DUP1 DUP4 SLOAD DIV MUL DUP4 MSTORE SWAP2 PUSH1 0x20 ADD SWAP2 PUSH2 0x2A0 JUMP JUMPDEST DUP3 ADD SWAP2 SWAP1 PUSH0 MSTORE PUSH1 0x20 PUSH0 KECCAK256 SWAP1 JUMPDEST DUP2 SLOAD DUP2 MSTORE SWAP1 PUSH1 0x1 ADD SWAP1 PUSH1 0x20 ADD DUP1 DUP4 GT PUSH2 0x283 JUMPI DUP3 SWAP1 SUB PUSH1 0x1F AND DUP3 ADD SWAP2 JUMPDEST POP POP POP POP POP DUP2 JUMP JUMPDEST PUSH1 0x60 PUSH1 0x40 MLOAD DUP1 PUSH1 0x20 ADD PUSH2 0x2BA SWAP1 PUSH2 0x8F4 JUMP JUMPDEST PUSH1 0x20 DUP3 ADD DUP2 SUB DUP3 MSTORE PUSH1 0x1F NOT PUSH1 0x1F DUP3 ADD AND PUSH1 0x40 MSTORE POP SWAP1 POP SWAP1 JUMP JUMPDEST DUP1 PUSH0 SWAP1 DUP2 PUSH2 0x2E1 SWAP2 SWAP1 PUSH2 0xE09 JUMP JUMPDEST POP PUSH2 0x3A8 PUSH1 0x40 MLOAD DUP1 PUSH1 0x40 ADD PUSH1 0x40 MSTORE DUP1 PUSH1 0x19 DUP2 MSTORE PUSH1 0x20 ADD PUSH32 0x6E616D6520686173206265656E206368616E67656420746F2000000000000000 DUP2 MSTORE POP PUSH0 DUP1 SLOAD PUSH2 0x327 SWAP1 PUSH2 0xC3C JUMP JUMPDEST DUP1 PUSH1 0x1F ADD PUSH1 0x20 DUP1 SWAP2 DIV MUL PUSH1 0x20 ADD PUSH1 0x40 MLOAD SWAP1 DUP2 ADD PUSH1 0x40 MSTORE DUP1 SWAP3 SWAP2 SWAP1 DUP2 DUP2 MSTORE PUSH1 0x20 ADD DUP3 DUP1 SLOAD PUSH2 0x353 SWAP1 PUSH2 0xC3C JUMP JUMPDEST DUP1 ISZERO PUSH2 0x39E JUMPI DUP1 PUSH1 0x1F LT PUSH2 0x375 JUMPI PUSH2 0x100 DUP1 DUP4 SLOAD DIV MUL DUP4 MSTORE SWAP2 PUSH1 0x20 ADD SWAP2 PUSH2 0x39E JUMP JUMPDEST DUP3 ADD SWAP2 SWAP1 PUSH0 MSTORE PUSH1 0x20 PUSH0 KECCAK256 SWAP1 JUMPDEST DUP2 SLOAD DUP2 MSTORE SWAP1 PUSH1 0x1 ADD SWAP1 PUSH1 0x20 ADD DUP1 DUP4 GT PUSH2 0x381 JUMPI DUP3 SWAP1 SUB PUSH1 0x1F AND DUP3 ADD SWAP2 JUMPDEST POP POP POP POP POP PUSH2 0x6E8 JUMP JUMPDEST POP JUMP JUMPDEST PUSH1 0x1 SLOAD DUP2 JUMP JUMPDEST PUSH0 ADDRESS PUSH20 0xFFFFFFFFFFFFFFFFFFFFFFFFFFFFFFFFFFFFFFFF AND PUSH4 0x78F2650C PUSH1 0x40 MLOAD DUP2 PUSH4 0xFFFFFFFF AND PUSH1 0xE0 SHL DUP2 MSTORE PUSH1 0x4 ADD PUSH1 0x20 PUSH1 0x40 MLOAD DUP1 DUP4 SUB DUP2 DUP7 GAS STATICCALL ISZERO DUP1 ISZERO PUSH2 0x3FB JUMPI RETURNDATASIZE PUSH0 DUP1 RETURNDATACOPY RETURNDATASIZE PUSH0 REVERT JUMPDEST POP POP POP POP PUSH1 0x40 MLOAD RETURNDATASIZE PUSH1 0x1F NOT PUSH1 0x1F DUP3 ADD AND DUP3 ADD DUP1 PUSH1 0x40 MSTORE POP DUP2 ADD SWAP1 PUSH2 0x41F SWAP2 SWAP1 PUSH2 0xF02 JUMP JUMPDEST SWAP1 POP SWAP1 JUMP JUMPDEST PUSH0 ADDRESS SWAP1 POP SWAP1 JUMP JUMPDEST PUSH1 0x2 PUSH0 SWAP1 SLOAD SWAP1 PUSH2 0x100 EXP SWAP1 DIV PUSH20 0xFFFFFFFFFFFFFFFFFFFFFFFFFFFFFFFFFFFFFFFF AND DUP2 JUMP JUMPDEST PUSH1 0x60 PUSH2 0x490 PUSH1 0x40 MLOAD DUP1 PUSH1 0x40 ADD PUSH1 0x40 MSTORE DUP1 PUSH1 0xB DUP2 MSTORE PUSH1 0x20 ADD PUSH32 0x68656C6C6F20776F726C64000000000000000000000000000000000000000000 DUP2 MSTORE POP PUSH2 0x784 JUMP JUMPDEST PUSH2 0x556 PUSH1 0x40 MLOAD DUP1 PUSH1 0x40 ADD PUSH1 0x40 MSTORE DUP1 PUSH1 0x5 DUP2 MSTORE PUSH1 0x20 ADD PUSH32 0x6E616D653A000000000000000000000000000000000000000000000000000000 DUP2 MSTORE POP PUSH0 DUP1 SLOAD PUSH2 0x4D5 SWAP1 PUSH2 0xC3C JUMP JUMPDEST DUP1 PUSH1 0x1F ADD PUSH1 0x20 DUP1 SWAP2 DIV MUL PUSH1 0x20 ADD PUSH1 0x40 MLOAD SWAP1 DUP2 ADD PUSH1 0x40 MSTORE DUP1 SWAP3 SWAP2 SWAP1 DUP2 DUP2 MSTORE PUSH1 0x20 ADD DUP3 DUP1 SLOAD PUSH2 0x501 SWAP1 PUSH2 0xC3C JUMP JUMPDEST DUP1 ISZERO PUSH2 0x54C JUMPI DUP1 PUSH1 0x1F LT PUSH2 0x523 JUMPI PUSH2 0x100 DUP1 DUP4 SLOAD DIV MUL DUP4 MSTORE SWAP2 PUSH1 0x20 ADD SWAP2 PUSH2 0x54C JUMP JUMPDEST DUP3 ADD SWAP2 SWAP1 PUSH0 MSTORE PUSH1 0x20 PUSH0 KECCAK256 SWAP1 JUMPDEST DUP2 SLOAD DUP2 MSTORE SWAP1 PUSH1 0x1 ADD SWAP1 PUSH1 0x20 ADD DUP1 DUP4 GT PUSH2 0x52F JUMPI DUP3 SWAP1 SUB PUSH1 0x1F AND DUP3 ADD SWAP2 JUMPDEST POP POP POP POP POP PUSH2 0x6E8 JUMP JUMPDEST PUSH2 0x597 PUSH1 0x40 MLOAD DUP1 PUSH1 0x40 ADD PUSH1 0x40 MSTORE DUP1 PUSH1 0x4 DUP2 MSTORE PUSH1 0x20 ADD PUSH32 0x6167653A00000000000000000000000000000000000000000000000000000000 DUP2 MSTORE POP PUSH1 0x1 SLOAD PUSH2 0x81D JUMP JUMPDEST PUSH0 DUP1 SLOAD PUSH2 0x5A3 SWAP1 PUSH2 0xC3C JUMP JUMPDEST DUP1 PUSH1 0x1F ADD PUSH1 0x20 DUP1 SWAP2 DIV MUL PUSH1 0x20 ADD PUSH1 0x40 MLOAD SWAP1 DUP2 ADD PUSH1 0x40 MSTORE DUP1 SWAP3 SWAP2 SWAP1 DUP2 DUP2 MSTORE PUSH1 0x20 ADD DUP3 DUP1 SLOAD PUSH2 0x5CF SWAP1 PUSH2 0xC3C JUMP JUMPDEST DUP1 ISZERO PUSH2 0x61A JUMPI DUP1 PUSH1 0x1F LT PUSH2 0x5F1 JUMPI PUSH2 0x100 DUP1 DUP4 SLOAD DIV MUL DUP4 MSTORE SWAP2 PUSH1 0x20 ADD SWAP2 PUSH2 0x61A JUMP JUMPDEST DUP3 ADD SWAP2 SWAP1 PUSH0 MSTORE PUSH1 0x20 PUSH0 KECCAK256 SWAP1 JUMPDEST DUP2 SLOAD DUP2 MSTORE SWAP1 PUSH1 0x1 ADD SWAP1 PUSH1 0x20 ADD DUP1 DUP4 GT PUSH2 0x5FD JUMPI DUP3 SWAP1 SUB PUSH1 0x1F AND DUP3 ADD SWAP2 JUMPDEST POP POP POP POP POP SWAP1 POP SWAP1 JUMP JUMPDEST PUSH1 0x60 PUSH1 0x40 MLOAD DUP1 PUSH1 0x40 ADD PUSH1 0x40 MSTORE PUSH1 0x8 DUP2 MSTORE DUP1 PUSH1 0x20 ADD PUSH32 0x5479706554657374000000000000000000000000000000000000000000000000 DUP2 MSTORE POP SWAP1 POP SWAP1 JUMP JUMPDEST PUSH0 CALLER PUSH1 0x2 PUSH0 PUSH2 0x100 EXP DUP2 SLOAD DUP2 PUSH20 0xFFFFFFFFFFFFFFFFFFFFFFFFFFFFFFFFFFFFFFFF MUL NOT AND SWAP1 DUP4 PUSH20 0xFFFFFFFFFFFFFFFFFFFFFFFFFFFFFFFFFFFFFFFF AND MUL OR SWAP1 SSTORE POP PUSH1 0x2 PUSH0 SWAP1 SLOAD SWAP1 PUSH2 0x100 EXP SWAP1 DIV PUSH20 0xFFFFFFFFFFFFFFFFFFFFFFFFFFFFFFFFFFFFFFFF AND SWAP1 POP SWAP1 JUMP JUMPDEST PUSH0 PUSH11 0x636F6E736F6C652E6C6F67 SWAP1 POP PUSH0 DUP1 DUP4 MLOAD PUSH1 0x20 DUP6 ADD DUP5 GAS STATICCALL POP POP POP JUMP JUMPDEST PUSH2 0x780 DUP3 DUP3 PUSH1 0x40 MLOAD PUSH1 0x24 ADD PUSH2 0x6FE SWAP3 SWAP2 SWAP1 PUSH2 0xF2D JUMP JUMPDEST PUSH1 0x40 MLOAD PUSH1 0x20 DUP2 DUP4 SUB SUB DUP2 MSTORE SWAP1 PUSH1 0x40 MSTORE PUSH32 0x4B5C427700000000000000000000000000000000000000000000000000000000 PUSH28 0xFFFFFFFFFFFFFFFFFFFFFFFFFFFFFFFFFFFFFFFFFFFFFFFFFFFFFFFF NOT AND PUSH1 0x20 DUP3 ADD DUP1 MLOAD PUSH28 0xFFFFFFFFFFFFFFFFFFFFFFFFFFFFFFFFFFFFFFFFFFFFFFFFFFFFFFFF DUP4 DUP2 DUP4 AND OR DUP4 MSTORE POP POP POP POP PUSH2 0x8B9 JUMP JUMPDEST POP POP JUMP JUMPDEST PUSH2 0x81A DUP2 PUSH1 0x40 MLOAD PUSH1 0x24 ADD PUSH2 0x798 SWAP2 SWAP1 PUSH2 0x9E2 JUMP JUMPDEST PUSH1 0x40 MLOAD PUSH1 0x20 DUP2 DUP4 SUB SUB DUP2 MSTORE SWAP1 PUSH1 0x40 MSTORE PUSH32 0x41304FAC00000000000000000000000000000000000000000000000000000000 PUSH28 0xFFFFFFFFFFFFFFFFFFFFFFFFFFFFFFFFFFFFFFFFFFFFFFFFFFFFFFFF NOT AND PUSH1 0x20 DUP3 ADD DUP1 MLOAD PUSH28 0xFFFFFFFFFFFFFFFFFFFFFFFFFFFFFFFFFFFFFFFFFFFFFFFFFFFFFFFF DUP4 DUP2 DUP4 AND OR DUP4 MSTORE POP POP POP POP PUSH2 0x8B9 JUMP JUMPDEST POP JUMP JUMPDEST PUSH2 0x8B5 DUP3 DUP3 PUSH1 0x40 MLOAD PUSH1 0x24 ADD PUSH2 0x833 SWAP3 SWAP2 SWAP1 PUSH2 0xF62 JUMP JUMPDEST PUSH1 0x40 MLOAD PUSH1 0x20 DUP2 DUP4 SUB SUB DUP2 MSTORE SWAP1 PUSH1 0x40 MSTORE PUSH32 0xB60E72CC00000000000000000000000000000000000000000000000000000000 PUSH28 0xFFFFFFFFFFFFFFFFFFFFFFFFFFFFFFFFFFFFFFFFFFFFFFFFFFFFFFFF NOT AND PUSH1 0x20 DUP3 ADD DUP1 MLOAD PUSH28 0xFFFFFFFFFFFFFFFFFFFFFFFFFFFFFFFFFFFFFFFFFFFFFFFFFFFFFFFF DUP4 DUP2 DUP4 AND OR DUP4 MSTORE POP POP POP POP PUSH2 0x8B9 JUMP JUMPDEST POP POP JUMP JUMPDEST PUSH2 0x8D0 DUP2 PUSH2 0x8C8 PUSH2 0x6C9 PUSH2 0x8D3 JUMP JUMPDEST PUSH4 0xFFFFFFFF AND JUMP JUMPDEST POP JUMP JUMPDEST PUSH2 0x8DE DUP2 SWAP1 POP SWAP2 SWAP1 POP JUMP JUMPDEST PUSH2 0x8E6 PUSH2 0xF90 JUMP JUMPDEST JUMP JUMPDEST PUSH1 0x58 DUP1 PUSH2 0xFBE DUP4 CODECOPY ADD SWAP1 JUMP JUMPDEST PUSH1 0x3E DUP1 PUSH2 0x1016 DUP4 CODECOPY ADD SWAP1 JUMP JUMPDEST PUSH0 DUP2 MLOAD SWAP1 POP SWAP2 SWAP1 POP JUMP JUMPDEST PUSH0 DUP3 DUP3 MSTORE PUSH1 0x20 DUP3 ADD SWAP1 POP SWAP3 SWAP2 POP POP JUMP JUMPDEST DUP3 DUP2 DUP4 MCOPY PUSH0 DUP4 DUP4 ADD MSTORE POP POP POP JUMP JUMPDEST PUSH0 PUSH1 0x1F NOT PUSH1 0x1F DUP4 ADD AND SWAP1 POP SWAP2 SWAP1 POP JUMP JUMPDEST PUSH0 PUSH2 0x942 DUP3 PUSH2 0x900 JUMP JUMPDEST PUSH2 0x94C DUP2 DUP6 PUSH2 0x90A JUMP JUMPDEST SWAP4 POP PUSH2 0x95C DUP2 DUP6 PUSH1 0x20 DUP7 ADD PUSH2 0x91A JUMP JUMPDEST PUSH2 0x965 DUP2 PUSH2 0x928 JUMP JUMPDEST DUP5 ADD SWAP2 POP POP SWAP3 SWAP2 POP POP JUMP JUMPDEST PUSH0 PUSH1 0x20 DUP3 ADD SWAP1 POP DUP2 DUP2 SUB PUSH0 DUP4 ADD MSTORE PUSH2 0x988 DUP2 DUP5 PUSH2 0x938 JUMP JUMPDEST SWAP1 POP SWAP3 SWAP2 POP POP JUMP JUMPDEST PUSH0 DUP2 MLOAD SWAP1 POP SWAP2 SWAP1 POP JUMP JUMPDEST PUSH0 DUP3 DUP3 MSTORE PUSH1 0x20 DUP3 ADD SWAP1 POP SWAP3 SWAP2 POP POP JUMP JUMPDEST PUSH0 PUSH2 0x9B4 DUP3 PUSH2 0x990 JUMP JUMPDEST PUSH2 0x9BE DUP2 DUP6 PUSH2 0x99A JUMP JUMPDEST SWAP4 POP PUSH2 0x9CE DUP2 DUP6 PUSH1 0x20 DUP7 ADD PUSH2 0x91A JUMP JUMPDEST PUSH2 0x9D7 DUP2 PUSH2 0x928 JUMP JUMPDEST DUP5 ADD SWAP2 POP POP SWAP3 SWAP2 POP POP JUMP JUMPDEST PUSH0 PUSH1 0x20 DUP3 ADD SWAP1 POP DUP2 DUP2 SUB PUSH0 DUP4 ADD MSTORE PUSH2 0x9FA DUP2 DUP5 PUSH2 0x9AA JUMP JUMPDEST SWAP1 POP SWAP3 SWAP2 POP POP JUMP JUMPDEST PUSH0 PUSH1 0x40 MLOAD SWAP1 POP SWAP1 JUMP JUMPDEST PUSH0 DUP1 REVERT JUMPDEST PUSH0 DUP1 REVERT JUMPDEST PUSH0 DUP1 REVERT JUMPDEST PUSH0 DUP1 REVERT JUMPDEST PUSH32 0x4E487B7100000000000000000000000000000000000000000000000000000000 PUSH0 MSTORE PUSH1 0x41 PUSH1 0x4 MSTORE PUSH1 0x24 PUSH0 REVERT JUMPDEST PUSH2 0xA51 DUP3 PUSH2 0x928 JUMP JUMPDEST DUP2 ADD DUP2 DUP2 LT PUSH8 0xFFFFFFFFFFFFFFFF DUP3 GT OR ISZERO PUSH2 0xA70 JUMPI PUSH2 0xA6F PUSH2 0xA1B JUMP JUMPDEST JUMPDEST DUP1 PUSH1 0x40 MSTORE POP POP POP JUMP JUMPDEST PUSH0 PUSH2 0xA82 PUSH2 0xA02 JUMP JUMPDEST SWAP1 POP PUSH2 0xA8E DUP3 DUP3 PUSH2 0xA48 JUMP JUMPDEST SWAP2 SWAP1 POP JUMP JUMPDEST PUSH0 PUSH8 0xFFFFFFFFFFFFFFFF DUP3 GT ISZERO PUSH2 0xAAD JUMPI PUSH2 0xAAC PUSH2 0xA1B JUMP JUMPDEST JUMPDEST PUSH2 0xAB6 DUP3 PUSH2 0x928 JUMP JUMPDEST SWAP1 POP PUSH1 0x20 DUP2 ADD SWAP1 POP SWAP2 SWAP1 POP JUMP JUMPDEST DUP3 DUP2 DUP4 CALLDATACOPY PUSH0 DUP4 DUP4 ADD MSTORE POP POP POP JUMP JUMPDEST PUSH0 PUSH2 0xAE3 PUSH2 0xADE DUP5 PUSH2 0xA93 JUMP JUMPDEST PUSH2 0xA79 JUMP JUMPDEST SWAP1 POP DUP3 DUP2 MSTORE PUSH1 0x20 DUP2 ADD DUP5 DUP5 DUP5 ADD GT ISZERO PUSH2 0xAFF JUMPI PUSH2 0xAFE PUSH2 0xA17 JUMP JUMPDEST JUMPDEST PUSH2 0xB0A DUP5 DUP3 DUP6 PUSH2 0xAC3 JUMP JUMPDEST POP SWAP4 SWAP3 POP POP POP JUMP JUMPDEST PUSH0 DUP3 PUSH1 0x1F DUP4 ADD SLT PUSH2 0xB26 JUMPI PUSH2 0xB25 PUSH2 0xA13 JUMP JUMPDEST JUMPDEST DUP2 CALLDATALOAD PUSH2 0xB36 DUP5 DUP3 PUSH1 0x20 DUP7 ADD PUSH2 0xAD1 JUMP JUMPDEST SWAP2 POP POP SWAP3 SWAP2 POP POP JUMP JUMPDEST PUSH0 PUSH1 0x20 DUP3 DUP5 SUB SLT ISZERO PUSH2 0xB54 JUMPI PUSH2 0xB53 PUSH2 0xA0B JUMP JUMPDEST JUMPDEST PUSH0 DUP3 ADD CALLDATALOAD PUSH8 0xFFFFFFFFFFFFFFFF DUP2 GT ISZERO PUSH2 0xB71 JUMPI PUSH2 0xB70 PUSH2 0xA0F JUMP JUMPDEST JUMPDEST PUSH2 0xB7D DUP5 DUP3 DUP6 ADD PUSH2 0xB12 JUMP JUMPDEST SWAP2 POP POP SWAP3 SWAP2 POP POP JUMP JUMPDEST PUSH0 DUP2 SWAP1 POP SWAP2 SWAP1 POP JUMP JUMPDEST PUSH2 0xB98 DUP2 PUSH2 0xB86 JUMP JUMPDEST DUP3 MSTORE POP POP JUMP JUMPDEST PUSH0 PUSH1 0x20 DUP3 ADD SWAP1 POP PUSH2 0xBB1 PUSH0 DUP4 ADD DUP5 PUSH2 0xB8F JUMP JUMPDEST SWAP3 SWAP2 POP POP JUMP JUMPDEST PUSH0 PUSH20 0xFFFFFFFFFFFFFFFFFFFFFFFFFFFFFFFFFFFFFFFF DUP3 AND SWAP1 POP SWAP2 SWAP1 POP JUMP JUMPDEST PUSH0 PUSH2 0xBE0 DUP3 PUSH2 0xBB7 JUMP JUMPDEST SWAP1 POP SWAP2 SWAP1 POP JUMP JUMPDEST PUSH2 0xBF0 DUP2 PUSH2 0xBD6 JUMP JUMPDEST DUP3 MSTORE POP POP JUMP JUMPDEST PUSH0 PUSH1 0x20 DUP3 ADD SWAP1 POP PUSH2 0xC09 PUSH0 DUP4 ADD DUP5 PUSH2 0xBE7 JUMP JUMPDEST SWAP3 SWAP2 POP POP JUMP JUMPDEST PUSH32 0x4E487B7100000000000000000000000000000000000000000000000000000000 PUSH0 MSTORE PUSH1 0x22 PUSH1 0x4 MSTORE PUSH1 0x24 PUSH0 REVERT JUMPDEST PUSH0 PUSH1 0x2 DUP3 DIV SWAP1 POP PUSH1 0x1 DUP3 AND DUP1 PUSH2 0xC53 JUMPI PUSH1 0x7F DUP3 AND SWAP2 POP JUMPDEST PUSH1 0x20 DUP3 LT DUP2 SUB PUSH2 0xC66 JUMPI PUSH2 0xC65 PUSH2 0xC0F JUMP JUMPDEST JUMPDEST POP SWAP2 SWAP1 POP JUMP JUMPDEST PUSH0 DUP2 SWAP1 POP DUP2 PUSH0 MSTORE PUSH1 0x20 PUSH0 KECCAK256 SWAP1 POP SWAP2 SWAP1 POP JUMP JUMPDEST PUSH0 PUSH1 0x20 PUSH1 0x1F DUP4 ADD DIV SWAP1 POP SWAP2 SWAP1 POP JUMP JUMPDEST PUSH0 DUP3 DUP3 SHL SWAP1 POP SWAP3 SWAP2 POP POP JUMP JUMPDEST PUSH0 PUSH1 0x8 DUP4 MUL PUSH2 0xCC8 PUSH32 0xFFFFFFFFFFFFFFFFFFFFFFFFFFFFFFFFFFFFFFFFFFFFFFFFFFFFFFFFFFFFFFFF DUP3 PUSH2 0xC8D JUMP JUMPDEST PUSH2 0xCD2 DUP7 DUP4 PUSH2 0xC8D JUMP JUMPDEST SWAP6 POP DUP1 NOT DUP5 AND SWAP4 POP DUP1 DUP7 AND DUP5 OR SWAP3 POP POP POP SWAP4 SWAP3 POP POP POP JUMP JUMPDEST PUSH0 DUP2 SWAP1 POP SWAP2 SWAP1 POP JUMP JUMPDEST PUSH0 PUSH2 0xD0D PUSH2 0xD08 PUSH2 0xD03 DUP5 PUSH2 0xB86 JUMP JUMPDEST PUSH2 0xCEA JUMP JUMPDEST PUSH2 0xB86 JUMP JUMPDEST SWAP1 POP SWAP2 SWAP1 POP JUMP JUMPDEST PUSH0 DUP2 SWAP1 POP SWAP2 SWAP1 POP JUMP JUMPDEST PUSH2 0xD26 DUP4 PUSH2 0xCF3 JUMP JUMPDEST PUSH2 0xD3A PUSH2 0xD32 DUP3 PUSH2 0xD14 JUMP JUMPDEST DUP5 DUP5 SLOAD PUSH2 0xC99 JUMP JUMPDEST DUP3 SSTORE POP POP POP POP JUMP JUMPDEST PUSH0 SWAP1 JUMP JUMPDEST PUSH2 0xD4E PUSH2 0xD42 JUMP JUMPDEST PUSH2 0xD59 DUP2 DUP5 DUP5 PUSH2 0xD1D JUMP JUMPDEST POP POP POP JUMP JUMPDEST JUMPDEST DUP2 DUP2 LT ISZERO PUSH2 0xD7C JUMPI PUSH2 0xD71 PUSH0 DUP3 PUSH2 0xD46 JUMP JUMPDEST PUSH1 0x1 DUP2 ADD SWAP1 POP PUSH2 0xD5F JUMP JUMPDEST POP POP JUMP JUMPDEST PUSH1 0x1F DUP3 GT ISZERO PUSH2 0xDC1 JUMPI PUSH2 0xD92 DUP2 PUSH2 0xC6C JUMP JUMPDEST PUSH2 0xD9B DUP5 PUSH2 0xC7E JUMP JUMPDEST DUP2 ADD PUSH1 0x20 DUP6 LT ISZERO PUSH2 0xDAA JUMPI DUP2 SWAP1 POP JUMPDEST PUSH2 0xDBE PUSH2 0xDB6 DUP6 PUSH2 0xC7E JUMP JUMPDEST DUP4 ADD DUP3 PUSH2 0xD5E JUMP JUMPDEST POP POP JUMPDEST POP POP POP JUMP JUMPDEST PUSH0 DUP3 DUP3 SHR SWAP1 POP SWAP3 SWAP2 POP POP JUMP JUMPDEST PUSH0 PUSH2 0xDE1 PUSH0 NOT DUP5 PUSH1 0x8 MUL PUSH2 0xDC6 JUMP JUMPDEST NOT DUP1 DUP4 AND SWAP2 POP POP SWAP3 SWAP2 POP POP JUMP JUMPDEST PUSH0 PUSH2 0xDF9 DUP4 DUP4 PUSH2 0xDD2 JUMP JUMPDEST SWAP2 POP DUP3 PUSH1 0x2 MUL DUP3 OR SWAP1 POP SWAP3 SWAP2 POP POP JUMP JUMPDEST PUSH2 0xE12 DUP3 PUSH2 0x990 JUMP JUMPDEST PUSH8 0xFFFFFFFFFFFFFFFF DUP2 GT ISZERO PUSH2 0xE2B JUMPI PUSH2 0xE2A PUSH2 0xA1B JUMP JUMPDEST JUMPDEST PUSH2 0xE35 DUP3 SLOAD PUSH2 0xC3C JUMP JUMPDEST PUSH2 0xE40 DUP3 DUP3 DUP6 PUSH2 0xD80 JUMP JUMPDEST PUSH0 PUSH1 0x20 SWAP1 POP PUSH1 0x1F DUP4 GT PUSH1 0x1 DUP2 EQ PUSH2 0xE71 JUMPI PUSH0 DUP5 ISZERO PUSH2 0xE5F JUMPI DUP3 DUP8 ADD MLOAD SWAP1 POP JUMPDEST PUSH2 0xE69 DUP6 DUP3 PUSH2 0xDEE JUMP JUMPDEST DUP7 SSTORE POP PUSH2 0xED0 JUMP JUMPDEST PUSH1 0x1F NOT DUP5 AND PUSH2 0xE7F DUP7 PUSH2 0xC6C JUMP JUMPDEST PUSH0 JUMPDEST DUP3 DUP2 LT ISZERO PUSH2 0xEA6 JUMPI DUP5 DUP10 ADD MLOAD DUP3 SSTORE PUSH1 0x1 DUP3 ADD SWAP2 POP PUSH1 0x20 DUP6 ADD SWAP5 POP PUSH1 0x20 DUP2 ADD SWAP1 POP PUSH2 0xE81 JUMP JUMPDEST DUP7 DUP4 LT ISZERO PUSH2 0xEC3 JUMPI DUP5 DUP10 ADD MLOAD PUSH2 0xEBF PUSH1 0x1F DUP10 AND DUP3 PUSH2 0xDD2 JUMP JUMPDEST DUP4 SSTORE POP JUMPDEST PUSH1 0x1 PUSH1 0x2 DUP9 MUL ADD DUP9 SSTORE POP POP POP JUMPDEST POP POP POP POP POP POP JUMP JUMPDEST PUSH2 0xEE1 DUP2 PUSH2 0xBD6 JUMP JUMPDEST DUP2 EQ PUSH2 0xEEB JUMPI PUSH0 DUP1 REVERT JUMPDEST POP JUMP JUMPDEST PUSH0 DUP2 MLOAD SWAP1 POP PUSH2 0xEFC DUP2 PUSH2 0xED8 JUMP JUMPDEST SWAP3 SWAP2 POP POP JUMP JUMPDEST PUSH0 PUSH1 0x20 DUP3 DUP5 SUB SLT ISZERO PUSH2 0xF17 JUMPI PUSH2 0xF16 PUSH2 0xA0B JUMP JUMPDEST JUMPDEST PUSH0 PUSH2 0xF24 DUP5 DUP3 DUP6 ADD PUSH2 0xEEE JUMP JUMPDEST SWAP2 POP POP SWAP3 SWAP2 POP POP JUMP JUMPDEST PUSH0 PUSH1 0x40 DUP3 ADD SWAP1 POP DUP2 DUP2 SUB PUSH0 DUP4 ADD MSTORE PUSH2 0xF45 DUP2 DUP6 PUSH2 0x9AA JUMP JUMPDEST SWAP1 POP DUP2 DUP2 SUB PUSH1 0x20 DUP4 ADD MSTORE PUSH2 0xF59 DUP2 DUP5 PUSH2 0x9AA JUMP JUMPDEST SWAP1 POP SWAP4 SWAP3 POP POP POP JUMP JUMPDEST PUSH0 PUSH1 0x40 DUP3 ADD SWAP1 POP DUP2 DUP2 SUB PUSH0 DUP4 ADD MSTORE PUSH2 0xF7A DUP2 DUP6 PUSH2 0x9AA JUMP JUMPDEST SWAP1 POP PUSH2 0xF89 PUSH1 0x20 DUP4 ADD DUP5 PUSH2 0xB8F JUMP JUMPDEST SWAP4 SWAP3 POP POP POP JUMP JUMPDEST PUSH32 0x4E487B7100000000000000000000000000000000000000000000000000000000 PUSH0 MSTORE PUSH1 0x51 PUSH1 0x4 MSTORE PUSH1 0x24 PUSH0 REVERT INVALID PUSH1 0x80 PUSH1 0x40 MSTORE CALLVALUE DUP1 ISZERO PUSH1 0xE JUMPI PUSH0 DUP1 REVERT JUMPDEST POP PUSH1 0x3E DUP1 PUSH1 0x1A PUSH0 CODECOPY PUSH0 RETURN INVALID PUSH1 0x80 PUSH1 0x40 MSTORE PUSH0 DUP1 REVERT INVALID LOG2 PUSH5 0x6970667358 0x22 SLT KECCAK256 0xD5 DUP4 0xED 0xD0 0xAE DIV DUP10 CALLDATALOAD 0xD4 LOG1 PUSH25 0xF78CE0CD3719E97D60B151D1CD8D40ECA4667A198F64736F6C PUSH4 0x4300081A STOP CALLER PUSH1 0x80 PUSH1 0x40 MSTORE PUSH0 DUP1 REVERT INVALID LOG2 PUSH5 0x6970667358 0x22 SLT KECCAK256 0xD5 DUP4 0xED 0xD0 0xAE DIV DUP10 CALLDATALOAD 0xD4 LOG1 PUSH25 0xF78CE0CD3719E97D60B151D1CD8D40ECA4667A198F64736F6C PUSH4 0x4300081A STOP CALLER LOG2 PUSH5 0x6970667358 0x22 SLT KECCAK256 0xB2 0x2D XOR SWAP16 0xAB BLOBHASH ISZERO 0xE4 PUSH31 0x64A2974A44B45180ECB7F190F65B3D7336AB6290E19F2F64736F6C63430008 BYTE STOP CALLER "
		},
		"gasEstimates": {
			"creation": {
				"codeDepositCost": "846600",
				"executionCost": "infinite",
				"totalCost": "infinite"
			},
			"external": {
				"age()": "2514",
				"changeTo(string)": "infinite",
				"dothing()": "infinite",
				"getContractName()": "infinite",
				"getCreationCode()": "infinite",
				"getMsgSenderAddress()": "26890",
				"getMyAddress1()": "401",
				"getMyAddress2()": "infinite",
				"getRuntimeCode()": "infinite",
				"msgSenderAddress()": "2552",
				"name()": "infinite"
			}
		},
		"methodIdentifiers": {
			"age()": "262a9dff",
			"changeTo(string)": "25d545d1",
			"dothing()": "cdc55d59",
			"getContractName()": "f5f5ba72",
			"getCreationCode()": "00c194db",
			"getMsgSenderAddress()": "fa07a683",
			"getMyAddress1()": "78f2650c",
			"getMyAddress2()": "73bb329c",
			"getRuntimeCode()": "2095f3ac",
			"msgSenderAddress()": "971f7b91",
			"name()": "06fdde03"
		}
	},
	"abi": [
		{
			"inputs": [
				{
					"internalType": "uint256",
					"name": "_age",
					"type": "uint256"
				},
				{
					"internalType": "string",
					"name": "_name",
					"type": "string"
				}
			],
			"stateMutability": "nonpayable",
			"type": "constructor"
		},
		{
			"inputs": [],
			"name": "age",
			"outputs": [
				{
					"internalType": "uint256",
					"name": "",
					"type": "uint256"
				}
			],
			"stateMutability": "view",
			"type": "function"
		},
		{
			"inputs": [
				{
					"internalType": "string",
					"name": "newname",
					"type": "string"
				}
			],
			"name": "changeTo",
			"outputs": [],
			"stateMutability": "nonpayable",
			"type": "function"
		},
		{
			"inputs": [],
			"name": "dothing",
			"outputs": [
				{
					"internalType": "string",
					"name": "",
					"type": "string"
				}
			],
			"stateMutability": "view",
			"type": "function"
		},
		{
			"inputs": [],
			"name": "getContractName",
			"outputs": [
				{
					"internalType": "string",
					"name": "",
					"type": "string"
				}
			],
			"stateMutability": "pure",
			"type": "function"
		},
		{
			"inputs": [],
			"name": "getCreationCode",
			"outputs": [
				{
					"internalType": "bytes",
					"name": "",
					"type": "bytes"
				}
			],
			"stateMutability": "pure",
			"type": "function"
		},
		{
			"inputs": [],
			"name": "getMsgSenderAddress",
			"outputs": [
				{
					"internalType": "address",
					"name": "",
					"type": "address"
				}
			],
			"stateMutability": "nonpayable",
			"type": "function"
		},
		{
			"inputs": [],
			"name": "getMyAddress1",
			"outputs": [
				{
					"internalType": "address",
					"name": "",
					"type": "address"
				}
			],
			"stateMutability": "view",
			"type": "function"
		},
		{
			"inputs": [],
			"name": "getMyAddress2",
			"outputs": [
				{
					"internalType": "address",
					"name": "",
					"type": "address"
				}
			],
			"stateMutability": "view",
			"type": "function"
		},
		{
			"inputs": [],
			"name": "getRuntimeCode",
			"outputs": [
				{
					"internalType": "bytes",
					"name": "",
					"type": "bytes"
				}
			],
			"stateMutability": "pure",
			"type": "function"
		},
		{
			"inputs": [],
			"name": "msgSenderAddress",
			"outputs": [
				{
					"internalType": "address",
					"name": "",
					"type": "address"
				}
			],
			"stateMutability": "view",
			"type": "function"
		},
		{
			"inputs": [],
			"name": "name",
			"outputs": [
				{
					"internalType": "string",
					"name": "",
					"type": "string"
				}
			],
			"stateMutability": "view",
			"type": "function"
		}
	]
}