{
	"data": {
		"bytecode": {
			"linkReferences": {},
			"object": "6080604052348015600e575f80fd5b5061025c8061001c5f395ff3fe608060405260043610610048575f3560e01c806279efb01461004c57806312065fe01461006257806372b0d90c1461008c578063830e8383146100b457806387bae434146100ca575b5f80fd5b348015610057575f80fd5b506100606100d4565b005b34801561006d575f80fd5b5061007661011a565b6040516100839190610184565b60405180910390f35b348015610097575f80fd5b506100b260048036038101906100ad91906101fb565b610121565b005b3480156100bf575f80fd5b506100c8610168565b005b6100d261016a565b005b3373ffffffffffffffffffffffffffffffffffffffff166108fc4790811502906040515f60405180830381858888f19350505050158015610117573d5f803e3d5ffd5b50565b5f47905090565b8073ffffffffffffffffffffffffffffffffffffffff166108fc4790811502906040515f60405180830381858888f19350505050158015610164573d5f803e3d5ffd5b5050565b565b565b5f819050919050565b61017e8161016c565b82525050565b5f6020820190506101975f830184610175565b92915050565b5f80fd5b5f73ffffffffffffffffffffffffffffffffffffffff82169050919050565b5f6101ca826101a1565b9050919050565b6101da816101c0565b81146101e4575f80fd5b50565b5f813590506101f5816101d1565b92915050565b5f602082840312156102105761020f61019d565b5b5f61021d848285016101e7565b9150509291505056fea264697066735822122053ec360be5a270e49c17a629bb726a01cb5349c35eb08ab17d0caa110f08c64664736f6c634300081a0033",
			"opcodes": "PUSH1 0x80 PUSH1 0x40 MSTORE CALLVALUE DUP1 ISZERO PUSH1 0xE JUMPI PUSH0 DUP1 REVERT JUMPDEST POP PUSH2 0x25C DUP1 PUSH2 0x1C PUSH0 CODECOPY PUSH0 RETURN INVALID PUSH1 0x80 PUSH1 0x40 MSTORE PUSH1 0x4 CALLDATASIZE LT PUSH2 0x48 JUMPI PUSH0 CALLDATALOAD PUSH1 0xE0 SHR DUP1 PUSH3 0x79EFB0 EQ PUSH2 0x4C JUMPI DUP1 PUSH4 0x12065FE0 EQ PUSH2 0x62 JUMPI DUP1 PUSH4 0x72B0D90C EQ PUSH2 0x8C JUMPI DUP1 PUSH4 0x830E8383 EQ PUSH2 0xB4 JUMPI DUP1 PUSH4 0x87BAE434 EQ PUSH2 0xCA JUMPI JUMPDEST PUSH0 DUP1 REVERT JUMPDEST CALLVALUE DUP1 ISZERO PUSH2 0x57 JUMPI PUSH0 DUP1 REVERT JUMPDEST POP PUSH2 0x60 PUSH2 0xD4 JUMP JUMPDEST STOP JUMPDEST CALLVALUE DUP1 ISZERO PUSH2 0x6D JUMPI PUSH0 DUP1 REVERT JUMPDEST POP PUSH2 0x76 PUSH2 0x11A JUMP JUMPDEST PUSH1 0x40 MLOAD PUSH2 0x83 SWAP2 SWAP1 PUSH2 0x184 JUMP JUMPDEST PUSH1 0x40 MLOAD DUP1 SWAP2 SUB SWAP1 RETURN JUMPDEST CALLVALUE DUP1 ISZERO PUSH2 0x97 JUMPI PUSH0 DUP1 REVERT JUMPDEST POP PUSH2 0xB2 PUSH1 0x4 DUP1 CALLDATASIZE SUB DUP2 ADD SWAP1 PUSH2 0xAD SWAP2 SWAP1 PUSH2 0x1FB JUMP JUMPDEST PUSH2 0x121 JUMP JUMPDEST STOP JUMPDEST CALLVALUE DUP1 ISZERO PUSH2 0xBF JUMPI PUSH0 DUP1 REVERT JUMPDEST POP PUSH2 0xC8 PUSH2 0x168 JUMP JUMPDEST STOP JUMPDEST PUSH2 0xD2 PUSH2 0x16A JUMP JUMPDEST STOP JUMPDEST CALLER PUSH20 0xFFFFFFFFFFFFFFFFFFFFFFFFFFFFFFFFFFFFFFFF AND PUSH2 0x8FC SELFBALANCE SWAP1 DUP2 ISZERO MUL SWAP1 PUSH1 0x40 MLOAD PUSH0 PUSH1 0x40 MLOAD DUP1 DUP4 SUB DUP2 DUP6 DUP9 DUP9 CALL SWAP4 POP POP POP POP ISZERO DUP1 ISZERO PUSH2 0x117 JUMPI RETURNDATASIZE PUSH0 DUP1 RETURNDATACOPY RETURNDATASIZE PUSH0 REVERT JUMPDEST POP JUMP JUMPDEST PUSH0 SELFBALANCE SWAP1 POP SWAP1 JUMP JUMPDEST DUP1 PUSH20 0xFFFFFFFFFFFFFFFFFFFFFFFFFFFFFFFFFFFFFFFF AND PUSH2 0x8FC SELFBALANCE SWAP1 DUP2 ISZERO MUL SWAP1 PUSH1 0x40 MLOAD PUSH0 PUSH1 0x40 MLOAD DUP1 DUP4 SUB DUP2 DUP6 DUP9 DUP9 CALL SWAP4 POP POP POP POP ISZERO DUP1 ISZERO PUSH2 0x164 JUMPI RETURNDATASIZE PUSH0 DUP1 RETURNDATACOPY RETURNDATASIZE PUSH0 REVERT JUMPDEST POP POP JUMP JUMPDEST JUMP JUMPDEST JUMP JUMPDEST PUSH0 DUP2 SWAP1 POP SWAP2 SWAP1 POP JUMP JUMPDEST PUSH2 0x17E DUP2 PUSH2 0x16C JUMP JUMPDEST DUP3 MSTORE POP POP JUMP JUMPDEST PUSH0 PUSH1 0x20 DUP3 ADD SWAP1 POP PUSH2 0x197 PUSH0 DUP4 ADD DUP5 PUSH2 0x175 JUMP JUMPDEST SWAP3 SWAP2 POP POP JUMP JUMPDEST PUSH0 DUP1 REVERT JUMPDEST PUSH0 PUSH20 0xFFFFFFFFFFFFFFFFFFFFFFFFFFFFFFFFFFFFFFFF DUP3 AND SWAP1 POP SWAP2 SWAP1 POP JUMP JUMPDEST PUSH0 PUSH2 0x1CA DUP3 PUSH2 0x1A1 JUMP JUMPDEST SWAP1 POP SWAP2 SWAP1 POP JUMP JUMPDEST PUSH2 0x1DA DUP2 PUSH2 0x1C0 JUMP JUMPDEST DUP2 EQ PUSH2 0x1E4 JUMPI PUSH0 DUP1 REVERT JUMPDEST POP JUMP JUMPDEST PUSH0 DUP2 CALLDATALOAD SWAP1 POP PUSH2 0x1F5 DUP2 PUSH2 0x1D1 JUMP JUMPDEST SWAP3 SWAP2 POP POP JUMP JUMPDEST PUSH0 PUSH1 0x20 DUP3 DUP5 SUB SLT ISZERO PUSH2 0x210 JUMPI PUSH2 0x20F PUSH2 0x19D JUMP JUMPDEST JUMPDEST PUSH0 PUSH2 0x21D DUP5 DUP3 DUP6 ADD PUSH2 0x1E7 JUMP JUMPDEST SWAP2 POP POP SWAP3 SWAP2 POP POP JUMP INVALID LOG2 PUSH5 0x6970667358 0x22 SLT KECCAK256 MSTORE8 0xEC CALLDATASIZE SIGNEXTEND 0xE5 LOG2 PUSH17 0xE49C17A629BB726A01CB5349C35EB08AB1 PUSH30 0xCAA110F08C64664736F6C634300081A0033000000000000000000000000 "
		},
		"gasEstimates": {
			"creation": {
				"codeDepositCost": "120800",
				"executionCost": "163",
				"totalCost": "120963"
			},
			"external": {
				"deposite1()": "185",
				"deposite2()": "187",
				"getBalance()": "334",
				"withdraw1()": "infinite",
				"withdrawTo(address)": "infinite"
			}
		},
		"methodIdentifiers": {
			"deposite1()": "87bae434",
			"deposite2()": "830e8383",
			"getBalance()": "12065fe0",
			"withdraw1()": "0079efb0",
			"withdrawTo(address)": "72b0d90c"
		}
	},
	"abi": [
		{
			"inputs": [],
			"name": "deposite1",
			"outputs": [],
			"stateMutability": "payable",
			"type": "function"
		},
		{
			"inputs": [],
			"name": "deposite2",
			"outputs": [],
			"stateMutability": "nonpayable",
			"type": "function"
		},
		{
			"inputs": [],
			"name": "getBalance",
			"outputs": [
				{
					"internalType": "uint256",
					"name": "",
					"type": "uint256"
				}
			],
			"stateMutability": "view",
			"type": "function"
		},
		{
			"inputs": [],
			"name": "withdraw1",
			"outputs": [],
			"stateMutability": "nonpayable",
			"type": "function"
		},
		{
			"inputs": [
				{
					"internalType": "address",
					"name": "_addr",
					"type": "address"
				}
			],
			"name": "withdrawTo",
			"outputs": [],
			"stateMutability": "nonpayable",
			"type": "function"
		}
	]
}