{
	"data": {
		"bytecode": {
			"linkReferences": {},
			"object": "6080604052348015600e575f80fd5b5061169c8061001c5f395ff3fe608060405234801561000f575f80fd5b5060043610610028575f3560e01c8062c194db1461002c575b5f80fd5b61003461004a565b60405161004191906100f2565b60405180910390f35b60606040518060200161005c90610075565b6020820181038252601f19601f82011660405250905090565b6115548061011383390190565b5f81519050919050565b5f82825260208201905092915050565b8281835e5f83830152505050565b5f601f19601f8301169050919050565b5f6100c482610082565b6100ce818561008c565b93506100de81856020860161009c565b6100e7816100aa565b840191505092915050565b5f6020820190508181035f83015261010a81846100ba565b90509291505056fe608060405234801561000f575f80fd5b5060405161155438038061155483398181016040528101906100319190610314565b6100766040518060400160405280601b81526020017f4f776e657220636f6e7472616374206465706c6f7965642062793a00000000008152508261009360201b60201c565b81600181905550805f908161008b9190610572565b5050506106eb565b61013182826040516024016100a9929190610689565b6040516020818303038152906040527f4b5c4277000000000000000000000000000000000000000000000000000000007bffffffffffffffffffffffffffffffffffffffffffffffffffffffff19166020820180517bffffffffffffffffffffffffffffffffffffffffffffffffffffffff838183161783525050505061013560201b60201c565b5050565b6101568161015161015960201b6105bc1761017860201b60201c565b60201c565b50565b5f6a636f6e736f6c652e6c6f6790505f80835160208501845afa505050565b61018a60201b6107d117819050919050565b6101926106be565b565b5f604051905090565b5f80fd5b5f80fd5b5f819050919050565b6101b7816101a5565b81146101c1575f80fd5b50565b5f815190506101d2816101ae565b92915050565b5f80fd5b5f80fd5b5f601f19601f8301169050919050565b7f4e487b71000000000000000000000000000000000000000000000000000000005f52604160045260245ffd5b610226826101e0565b810181811067ffffffffffffffff82111715610245576102446101f0565b5b80604052505050565b5f610257610194565b9050610263828261021d565b919050565b5f67ffffffffffffffff821115610282576102816101f0565b5b61028b826101e0565b9050602081019050919050565b8281835e5f83830152505050565b5f6102b86102b384610268565b61024e565b9050828152602081018484840111156102d4576102d36101dc565b5b6102df848285610298565b509392505050565b5f82601f8301126102fb576102fa6101d8565b5b815161030b8482602086016102a6565b91505092915050565b5f806040838503121561032a5761032961019d565b5b5f610337858286016101c4565b925050602083015167ffffffffffffffff811115610358576103576101a1565b5b610364858286016102e7565b9150509250929050565b5f81519050919050565b7f4e487b71000000000000000000000000000000000000000000000000000000005f52602260045260245ffd5b5f60028204905060018216806103bc57607f821691505b6020821081036103cf576103ce610378565b5b50919050565b5f819050815f5260205f209050919050565b5f6020601f8301049050919050565b5f82821b905092915050565b5f600883026104317fffffffffffffffffffffffffffffffffffffffffffffffffffffffffffffffff826103f6565b61043b86836103f6565b95508019841693508086168417925050509392505050565b5f819050919050565b5f61047661047161046c846101a5565b610453565b6101a5565b9050919050565b5f819050919050565b61048f8361045c565b6104a361049b8261047d565b848454610402565b825550505050565b5f90565b6104b76104ab565b6104c2818484610486565b505050565b5b818110156104e5576104da5f826104af565b6001810190506104c8565b5050565b601f82111561052a576104fb816103d5565b610504846103e7565b81016020851015610513578190505b61052761051f856103e7565b8301826104c7565b50505b505050565b5f82821c905092915050565b5f61054a5f198460080261052f565b1980831691505092915050565b5f610562838361053b565b9150826002028217905092915050565b61057b8261036e565b67ffffffffffffffff811115610594576105936101f0565b5b61059e82546103a5565b6105a98282856104e9565b5f60209050601f8311600181146105da575f84156105c8578287015190505b6105d28582610557565b865550610639565b601f1984166105e8866103d5565b5f5b8281101561060f578489015182556001820191506020850194506020810190506105ea565b8683101561062c5784890151610628601f89168261053b565b8355505b6001600288020188555050505b505050505050565b5f82825260208201905092915050565b5f61065b8261036e565b6106658185610641565b9350610675818560208601610298565b61067e816101e0565b840191505092915050565b5f6040820190508181035f8301526106a18185610651565b905081810360208301526106b58184610651565b90509392505050565b7f4e487b71000000000000000000000000000000000000000000000000000000005f52605160045260245ffd5b610e5c806106f85f395ff3fe608060405234801561000f575f80fd5b5060043610610086575f3560e01c806378f2650c1161005957806378f2650c14610100578063971f7b911461011e578063cdc55d591461013c578063fa07a6831461015a57610086565b806306fdde031461008a57806325d545d1146100a8578063262a9dff146100c457806373bb329c146100e2575b5f80fd5b610092610178565b60405161009f919061084b565b60405180910390f35b6100c260048036038101906100bd91906109a8565b610203565b005b6100cc6102db565b6040516100d99190610a07565b60405180910390f35b6100ea6102e1565b6040516100f79190610a5f565b60405180910390f35b610108610354565b6040516101159190610a5f565b60405180910390f35b61012661035b565b6040516101339190610a5f565b60405180910390f35b610144610380565b604051610151919061084b565b60405180910390f35b610162610554565b60405161016f9190610a5f565b60405180910390f35b5f805461018490610aa5565b80601f01602080910402602001604051908101604052809291908181526020018280546101b090610aa5565b80156101fb5780601f106101d2576101008083540402835291602001916101fb565b820191905f5260205f20905b8154815290600101906020018083116101de57829003601f168201915b505050505081565b805f90816102119190610c72565b506102d86040518060400160405280601981526020017f6e616d6520686173206265656e206368616e67656420746f20000000000000008152505f805461025790610aa5565b80601f016020809104026020016040519081016040528092919081815260200182805461028390610aa5565b80156102ce5780601f106102a5576101008083540402835291602001916102ce565b820191905f5260205f20905b8154815290600101906020018083116102b157829003601f168201915b50505050506105db565b50565b60015481565b5f3073ffffffffffffffffffffffffffffffffffffffff166378f2650c6040518163ffffffff1660e01b8152600401602060405180830381865afa15801561032b573d5f803e3d5ffd5b505050506040513d601f19601f8201168201806040525081019061034f9190610d6b565b905090565b5f30905090565b60025f9054906101000a900473ffffffffffffffffffffffffffffffffffffffff1681565b60606103c06040518060400160405280600b81526020017f68656c6c6f20776f726c64000000000000000000000000000000000000000000815250610677565b6104866040518060400160405280600581526020017f6e616d653a0000000000000000000000000000000000000000000000000000008152505f805461040590610aa5565b80601f016020809104026020016040519081016040528092919081815260200182805461043190610aa5565b801561047c5780601f106104535761010080835404028352916020019161047c565b820191905f5260205f20905b81548152906001019060200180831161045f57829003601f168201915b50505050506105db565b6104c76040518060400160405280600481526020017f6167653a00000000000000000000000000000000000000000000000000000000815250600154610710565b5f80546104d390610aa5565b80601f01602080910402602001604051908101604052809291908181526020018280546104ff90610aa5565b801561054a5780601f106105215761010080835404028352916020019161054a565b820191905f5260205f20905b81548152906001019060200180831161052d57829003601f168201915b5050505050905090565b5f3360025f6101000a81548173ffffffffffffffffffffffffffffffffffffffff021916908373ffffffffffffffffffffffffffffffffffffffff16021790555060025f9054906101000a900473ffffffffffffffffffffffffffffffffffffffff16905090565b5f6a636f6e736f6c652e6c6f6790505f80835160208501845afa505050565b61067382826040516024016105f1929190610d96565b6040516020818303038152906040527f4b5c4277000000000000000000000000000000000000000000000000000000007bffffffffffffffffffffffffffffffffffffffffffffffffffffffff19166020820180517bffffffffffffffffffffffffffffffffffffffffffffffffffffffff83818316178352505050506107ac565b5050565b61070d8160405160240161068b919061084b565b6040516020818303038152906040527f41304fac000000000000000000000000000000000000000000000000000000007bffffffffffffffffffffffffffffffffffffffffffffffffffffffff19166020820180517bffffffffffffffffffffffffffffffffffffffffffffffffffffffff83818316178352505050506107ac565b50565b6107a88282604051602401610726929190610dcb565b6040516020818303038152906040527fb60e72cc000000000000000000000000000000000000000000000000000000007bffffffffffffffffffffffffffffffffffffffffffffffffffffffff19166020820180517bffffffffffffffffffffffffffffffffffffffffffffffffffffffff83818316178352505050506107ac565b5050565b6107c3816107bb6105bc6107c6565b63ffffffff16565b50565b6107d1819050919050565b6107d9610df9565b565b5f81519050919050565b5f82825260208201905092915050565b8281835e5f83830152505050565b5f601f19601f8301169050919050565b5f61081d826107db565b61082781856107e5565b93506108378185602086016107f5565b61084081610803565b840191505092915050565b5f6020820190508181035f8301526108638184610813565b905092915050565b5f604051905090565b5f80fd5b5f80fd5b5f80fd5b5f80fd5b7f4e487b71000000000000000000000000000000000000000000000000000000005f52604160045260245ffd5b6108ba82610803565b810181811067ffffffffffffffff821117156108d9576108d8610884565b5b80604052505050565b5f6108eb61086b565b90506108f782826108b1565b919050565b5f67ffffffffffffffff82111561091657610915610884565b5b61091f82610803565b9050602081019050919050565b828183375f83830152505050565b5f61094c610947846108fc565b6108e2565b90508281526020810184848401111561096857610967610880565b5b61097384828561092c565b509392505050565b5f82601f83011261098f5761098e61087c565b5b813561099f84826020860161093a565b91505092915050565b5f602082840312156109bd576109bc610874565b5b5f82013567ffffffffffffffff8111156109da576109d9610878565b5b6109e68482850161097b565b91505092915050565b5f819050919050565b610a01816109ef565b82525050565b5f602082019050610a1a5f8301846109f8565b92915050565b5f73ffffffffffffffffffffffffffffffffffffffff82169050919050565b5f610a4982610a20565b9050919050565b610a5981610a3f565b82525050565b5f602082019050610a725f830184610a50565b92915050565b7f4e487b71000000000000000000000000000000000000000000000000000000005f52602260045260245ffd5b5f6002820490506001821680610abc57607f821691505b602082108103610acf57610ace610a78565b5b50919050565b5f819050815f5260205f209050919050565b5f6020601f8301049050919050565b5f82821b905092915050565b5f60088302610b317fffffffffffffffffffffffffffffffffffffffffffffffffffffffffffffffff82610af6565b610b3b8683610af6565b95508019841693508086168417925050509392505050565b5f819050919050565b5f610b76610b71610b6c846109ef565b610b53565b6109ef565b9050919050565b5f819050919050565b610b8f83610b5c565b610ba3610b9b82610b7d565b848454610b02565b825550505050565b5f90565b610bb7610bab565b610bc2818484610b86565b505050565b5b81811015610be557610bda5f82610baf565b600181019050610bc8565b5050565b601f821115610c2a57610bfb81610ad5565b610c0484610ae7565b81016020851015610c13578190505b610c27610c1f85610ae7565b830182610bc7565b50505b505050565b5f82821c905092915050565b5f610c4a5f1984600802610c2f565b1980831691505092915050565b5f610c628383610c3b565b9150826002028217905092915050565b610c7b826107db565b67ffffffffffffffff811115610c9457610c93610884565b5b610c9e8254610aa5565b610ca9828285610be9565b5f60209050601f831160018114610cda575f8415610cc8578287015190505b610cd28582610c57565b865550610d39565b601f198416610ce886610ad5565b5f5b82811015610d0f57848901518255600182019150602085019450602081019050610cea565b86831015610d2c5784890151610d28601f891682610c3b565b8355505b6001600288020188555050505b505050505050565b610d4a81610a3f565b8114610d54575f80fd5b50565b5f81519050610d6581610d41565b92915050565b5f60208284031215610d8057610d7f610874565b5b5f610d8d84828501610d57565b91505092915050565b5f6040820190508181035f830152610dae8185610813565b90508181036020830152610dc28184610813565b90509392505050565b5f6040820190508181035f830152610de38185610813565b9050610df260208301846109f8565b9392505050565b7f4e487b71000000000000000000000000000000000000000000000000000000005f52605160045260245ffdfea26469706673582212201a84ae4b6070af7d218544540af06991b530d35d2cf8329a74722dfac6964a7264736f6c634300081a0033a2646970667358221220fe4458606c311fc9155625961646c6a7efb470324ef6dcc7ede343185d1eaba364736f6c634300081a0033",
			"opcodes": "PUSH1 0x80 PUSH1 0x40 MSTORE CALLVALUE DUP1 ISZERO PUSH1 0xE JUMPI PUSH0 DUP1 REVERT JUMPDEST POP PUSH2 0x169C DUP1 PUSH2 0x1C PUSH0 CODECOPY PUSH0 RETURN INVALID PUSH1 0x80 PUSH1 0x40 MSTORE CALLVALUE DUP1 ISZERO PUSH2 0xF JUMPI PUSH0 DUP1 REVERT JUMPDEST POP PUSH1 0x4 CALLDATASIZE LT PUSH2 0x28 JUMPI PUSH0 CALLDATALOAD PUSH1 0xE0 SHR DUP1 PUSH3 0xC194DB EQ PUSH2 0x2C JUMPI JUMPDEST PUSH0 DUP1 REVERT JUMPDEST PUSH2 0x34 PUSH2 0x4A JUMP JUMPDEST PUSH1 0x40 MLOAD PUSH2 0x41 SWAP2 SWAP1 PUSH2 0xF2 JUMP JUMPDEST PUSH1 0x40 MLOAD DUP1 SWAP2 SUB SWAP1 RETURN JUMPDEST PUSH1 0x60 PUSH1 0x40 MLOAD DUP1 PUSH1 0x20 ADD PUSH2 0x5C SWAP1 PUSH2 0x75 JUMP JUMPDEST PUSH1 0x20 DUP3 ADD DUP2 SUB DUP3 MSTORE PUSH1 0x1F NOT PUSH1 0x1F DUP3 ADD AND PUSH1 0x40 MSTORE POP SWAP1 POP SWAP1 JUMP JUMPDEST PUSH2 0x1554 DUP1 PUSH2 0x113 DUP4 CODECOPY ADD SWAP1 JUMP JUMPDEST PUSH0 DUP2 MLOAD SWAP1 POP SWAP2 SWAP1 POP JUMP JUMPDEST PUSH0 DUP3 DUP3 MSTORE PUSH1 0x20 DUP3 ADD SWAP1 POP SWAP3 SWAP2 POP POP JUMP JUMPDEST DUP3 DUP2 DUP4 MCOPY PUSH0 DUP4 DUP4 ADD MSTORE POP POP POP JUMP JUMPDEST PUSH0 PUSH1 0x1F NOT PUSH1 0x1F DUP4 ADD AND SWAP1 POP SWAP2 SWAP1 POP JUMP JUMPDEST PUSH0 PUSH2 0xC4 DUP3 PUSH2 0x82 JUMP JUMPDEST PUSH2 0xCE DUP2 DUP6 PUSH2 0x8C JUMP JUMPDEST SWAP4 POP PUSH2 0xDE DUP2 DUP6 PUSH1 0x20 DUP7 ADD PUSH2 0x9C JUMP JUMPDEST PUSH2 0xE7 DUP2 PUSH2 0xAA JUMP JUMPDEST DUP5 ADD SWAP2 POP POP SWAP3 SWAP2 POP POP JUMP JUMPDEST PUSH0 PUSH1 0x20 DUP3 ADD SWAP1 POP DUP2 DUP2 SUB PUSH0 DUP4 ADD MSTORE PUSH2 0x10A DUP2 DUP5 PUSH2 0xBA JUMP JUMPDEST SWAP1 POP SWAP3 SWAP2 POP POP JUMP INVALID PUSH1 0x80 PUSH1 0x40 MSTORE CALLVALUE DUP1 ISZERO PUSH2 0xF JUMPI PUSH0 DUP1 REVERT JUMPDEST POP PUSH1 0x40 MLOAD PUSH2 0x1554 CODESIZE SUB DUP1 PUSH2 0x1554 DUP4 CODECOPY DUP2 DUP2 ADD PUSH1 0x40 MSTORE DUP2 ADD SWAP1 PUSH2 0x31 SWAP2 SWAP1 PUSH2 0x314 JUMP JUMPDEST PUSH2 0x76 PUSH1 0x40 MLOAD DUP1 PUSH1 0x40 ADD PUSH1 0x40 MSTORE DUP1 PUSH1 0x1B DUP2 MSTORE PUSH1 0x20 ADD PUSH32 0x4F776E657220636F6E7472616374206465706C6F7965642062793A0000000000 DUP2 MSTORE POP DUP3 PUSH2 0x93 PUSH1 0x20 SHL PUSH1 0x20 SHR JUMP JUMPDEST DUP2 PUSH1 0x1 DUP2 SWAP1 SSTORE POP DUP1 PUSH0 SWAP1 DUP2 PUSH2 0x8B SWAP2 SWAP1 PUSH2 0x572 JUMP JUMPDEST POP POP POP PUSH2 0x6EB JUMP JUMPDEST PUSH2 0x131 DUP3 DUP3 PUSH1 0x40 MLOAD PUSH1 0x24 ADD PUSH2 0xA9 SWAP3 SWAP2 SWAP1 PUSH2 0x689 JUMP JUMPDEST PUSH1 0x40 MLOAD PUSH1 0x20 DUP2 DUP4 SUB SUB DUP2 MSTORE SWAP1 PUSH1 0x40 MSTORE PUSH32 0x4B5C427700000000000000000000000000000000000000000000000000000000 PUSH28 0xFFFFFFFFFFFFFFFFFFFFFFFFFFFFFFFFFFFFFFFFFFFFFFFFFFFFFFFF NOT AND PUSH1 0x20 DUP3 ADD DUP1 MLOAD PUSH28 0xFFFFFFFFFFFFFFFFFFFFFFFFFFFFFFFFFFFFFFFFFFFFFFFFFFFFFFFF DUP4 DUP2 DUP4 AND OR DUP4 MSTORE POP POP POP POP PUSH2 0x135 PUSH1 0x20 SHL PUSH1 0x20 SHR JUMP JUMPDEST POP POP JUMP JUMPDEST PUSH2 0x156 DUP2 PUSH2 0x151 PUSH2 0x159 PUSH1 0x20 SHL PUSH2 0x5BC OR PUSH2 0x178 PUSH1 0x20 SHL PUSH1 0x20 SHR JUMP JUMPDEST PUSH1 0x20 SHR JUMP JUMPDEST POP JUMP JUMPDEST PUSH0 PUSH11 0x636F6E736F6C652E6C6F67 SWAP1 POP PUSH0 DUP1 DUP4 MLOAD PUSH1 0x20 DUP6 ADD DUP5 GAS STATICCALL POP POP POP JUMP JUMPDEST PUSH2 0x18A PUSH1 0x20 SHL PUSH2 0x7D1 OR DUP2 SWAP1 POP SWAP2 SWAP1 POP JUMP JUMPDEST PUSH2 0x192 PUSH2 0x6BE JUMP JUMPDEST JUMP JUMPDEST PUSH0 PUSH1 0x40 MLOAD SWAP1 POP SWAP1 JUMP JUMPDEST PUSH0 DUP1 REVERT JUMPDEST PUSH0 DUP1 REVERT JUMPDEST PUSH0 DUP2 SWAP1 POP SWAP2 SWAP1 POP JUMP JUMPDEST PUSH2 0x1B7 DUP2 PUSH2 0x1A5 JUMP JUMPDEST DUP2 EQ PUSH2 0x1C1 JUMPI PUSH0 DUP1 REVERT JUMPDEST POP JUMP JUMPDEST PUSH0 DUP2 MLOAD SWAP1 POP PUSH2 0x1D2 DUP2 PUSH2 0x1AE JUMP JUMPDEST SWAP3 SWAP2 POP POP JUMP JUMPDEST PUSH0 DUP1 REVERT JUMPDEST PUSH0 DUP1 REVERT JUMPDEST PUSH0 PUSH1 0x1F NOT PUSH1 0x1F DUP4 ADD AND SWAP1 POP SWAP2 SWAP1 POP JUMP JUMPDEST PUSH32 0x4E487B7100000000000000000000000000000000000000000000000000000000 PUSH0 MSTORE PUSH1 0x41 PUSH1 0x4 MSTORE PUSH1 0x24 PUSH0 REVERT JUMPDEST PUSH2 0x226 DUP3 PUSH2 0x1E0 JUMP JUMPDEST DUP2 ADD DUP2 DUP2 LT PUSH8 0xFFFFFFFFFFFFFFFF DUP3 GT OR ISZERO PUSH2 0x245 JUMPI PUSH2 0x244 PUSH2 0x1F0 JUMP JUMPDEST JUMPDEST DUP1 PUSH1 0x40 MSTORE POP POP POP JUMP JUMPDEST PUSH0 PUSH2 0x257 PUSH2 0x194 JUMP JUMPDEST SWAP1 POP PUSH2 0x263 DUP3 DUP3 PUSH2 0x21D JUMP JUMPDEST SWAP2 SWAP1 POP JUMP JUMPDEST PUSH0 PUSH8 0xFFFFFFFFFFFFFFFF DUP3 GT ISZERO PUSH2 0x282 JUMPI PUSH2 0x281 PUSH2 0x1F0 JUMP JUMPDEST JUMPDEST PUSH2 0x28B DUP3 PUSH2 0x1E0 JUMP JUMPDEST SWAP1 POP PUSH1 0x20 DUP2 ADD SWAP1 POP SWAP2 SWAP1 POP JUMP JUMPDEST DUP3 DUP2 DUP4 MCOPY PUSH0 DUP4 DUP4 ADD MSTORE POP POP POP JUMP JUMPDEST PUSH0 PUSH2 0x2B8 PUSH2 0x2B3 DUP5 PUSH2 0x268 JUMP JUMPDEST PUSH2 0x24E JUMP JUMPDEST SWAP1 POP DUP3 DUP2 MSTORE PUSH1 0x20 DUP2 ADD DUP5 DUP5 DUP5 ADD GT ISZERO PUSH2 0x2D4 JUMPI PUSH2 0x2D3 PUSH2 0x1DC JUMP JUMPDEST JUMPDEST PUSH2 0x2DF DUP5 DUP3 DUP6 PUSH2 0x298 JUMP JUMPDEST POP SWAP4 SWAP3 POP POP POP JUMP JUMPDEST PUSH0 DUP3 PUSH1 0x1F DUP4 ADD SLT PUSH2 0x2FB JUMPI PUSH2 0x2FA PUSH2 0x1D8 JUMP JUMPDEST JUMPDEST DUP2 MLOAD PUSH2 0x30B DUP5 DUP3 PUSH1 0x20 DUP7 ADD PUSH2 0x2A6 JUMP JUMPDEST SWAP2 POP POP SWAP3 SWAP2 POP POP JUMP JUMPDEST PUSH0 DUP1 PUSH1 0x40 DUP4 DUP6 SUB SLT ISZERO PUSH2 0x32A JUMPI PUSH2 0x329 PUSH2 0x19D JUMP JUMPDEST JUMPDEST PUSH0 PUSH2 0x337 DUP6 DUP3 DUP7 ADD PUSH2 0x1C4 JUMP JUMPDEST SWAP3 POP POP PUSH1 0x20 DUP4 ADD MLOAD PUSH8 0xFFFFFFFFFFFFFFFF DUP2 GT ISZERO PUSH2 0x358 JUMPI PUSH2 0x357 PUSH2 0x1A1 JUMP JUMPDEST JUMPDEST PUSH2 0x364 DUP6 DUP3 DUP7 ADD PUSH2 0x2E7 JUMP JUMPDEST SWAP2 POP POP SWAP3 POP SWAP3 SWAP1 POP JUMP JUMPDEST PUSH0 DUP2 MLOAD SWAP1 POP SWAP2 SWAP1 POP JUMP JUMPDEST PUSH32 0x4E487B7100000000000000000000000000000000000000000000000000000000 PUSH0 MSTORE PUSH1 0x22 PUSH1 0x4 MSTORE PUSH1 0x24 PUSH0 REVERT JUMPDEST PUSH0 PUSH1 0x2 DUP3 DIV SWAP1 POP PUSH1 0x1 DUP3 AND DUP1 PUSH2 0x3BC JUMPI PUSH1 0x7F DUP3 AND SWAP2 POP JUMPDEST PUSH1 0x20 DUP3 LT DUP2 SUB PUSH2 0x3CF JUMPI PUSH2 0x3CE PUSH2 0x378 JUMP JUMPDEST JUMPDEST POP SWAP2 SWAP1 POP JUMP JUMPDEST PUSH0 DUP2 SWAP1 POP DUP2 PUSH0 MSTORE PUSH1 0x20 PUSH0 KECCAK256 SWAP1 POP SWAP2 SWAP1 POP JUMP JUMPDEST PUSH0 PUSH1 0x20 PUSH1 0x1F DUP4 ADD DIV SWAP1 POP SWAP2 SWAP1 POP JUMP JUMPDEST PUSH0 DUP3 DUP3 SHL SWAP1 POP SWAP3 SWAP2 POP POP JUMP JUMPDEST PUSH0 PUSH1 0x8 DUP4 MUL PUSH2 0x431 PUSH32 0xFFFFFFFFFFFFFFFFFFFFFFFFFFFFFFFFFFFFFFFFFFFFFFFFFFFFFFFFFFFFFFFF DUP3 PUSH2 0x3F6 JUMP JUMPDEST PUSH2 0x43B DUP7 DUP4 PUSH2 0x3F6 JUMP JUMPDEST SWAP6 POP DUP1 NOT DUP5 AND SWAP4 POP DUP1 DUP7 AND DUP5 OR SWAP3 POP POP POP SWAP4 SWAP3 POP POP POP JUMP JUMPDEST PUSH0 DUP2 SWAP1 POP SWAP2 SWAP1 POP JUMP JUMPDEST PUSH0 PUSH2 0x476 PUSH2 0x471 PUSH2 0x46C DUP5 PUSH2 0x1A5 JUMP JUMPDEST PUSH2 0x453 JUMP JUMPDEST PUSH2 0x1A5 JUMP JUMPDEST SWAP1 POP SWAP2 SWAP1 POP JUMP JUMPDEST PUSH0 DUP2 SWAP1 POP SWAP2 SWAP1 POP JUMP JUMPDEST PUSH2 0x48F DUP4 PUSH2 0x45C JUMP JUMPDEST PUSH2 0x4A3 PUSH2 0x49B DUP3 PUSH2 0x47D JUMP JUMPDEST DUP5 DUP5 SLOAD PUSH2 0x402 JUMP JUMPDEST DUP3 SSTORE POP POP POP POP JUMP JUMPDEST PUSH0 SWAP1 JUMP JUMPDEST PUSH2 0x4B7 PUSH2 0x4AB JUMP JUMPDEST PUSH2 0x4C2 DUP2 DUP5 DUP5 PUSH2 0x486 JUMP JUMPDEST POP POP POP JUMP JUMPDEST JUMPDEST DUP2 DUP2 LT ISZERO PUSH2 0x4E5 JUMPI PUSH2 0x4DA PUSH0 DUP3 PUSH2 0x4AF JUMP JUMPDEST PUSH1 0x1 DUP2 ADD SWAP1 POP PUSH2 0x4C8 JUMP JUMPDEST POP POP JUMP JUMPDEST PUSH1 0x1F DUP3 GT ISZERO PUSH2 0x52A JUMPI PUSH2 0x4FB DUP2 PUSH2 0x3D5 JUMP JUMPDEST PUSH2 0x504 DUP5 PUSH2 0x3E7 JUMP JUMPDEST DUP2 ADD PUSH1 0x20 DUP6 LT ISZERO PUSH2 0x513 JUMPI DUP2 SWAP1 POP JUMPDEST PUSH2 0x527 PUSH2 0x51F DUP6 PUSH2 0x3E7 JUMP JUMPDEST DUP4 ADD DUP3 PUSH2 0x4C7 JUMP JUMPDEST POP POP JUMPDEST POP POP POP JUMP JUMPDEST PUSH0 DUP3 DUP3 SHR SWAP1 POP SWAP3 SWAP2 POP POP JUMP JUMPDEST PUSH0 PUSH2 0x54A PUSH0 NOT DUP5 PUSH1 0x8 MUL PUSH2 0x52F JUMP JUMPDEST NOT DUP1 DUP4 AND SWAP2 POP POP SWAP3 SWAP2 POP POP JUMP JUMPDEST PUSH0 PUSH2 0x562 DUP4 DUP4 PUSH2 0x53B JUMP JUMPDEST SWAP2 POP DUP3 PUSH1 0x2 MUL DUP3 OR SWAP1 POP SWAP3 SWAP2 POP POP JUMP JUMPDEST PUSH2 0x57B DUP3 PUSH2 0x36E JUMP JUMPDEST PUSH8 0xFFFFFFFFFFFFFFFF DUP2 GT ISZERO PUSH2 0x594 JUMPI PUSH2 0x593 PUSH2 0x1F0 JUMP JUMPDEST JUMPDEST PUSH2 0x59E DUP3 SLOAD PUSH2 0x3A5 JUMP JUMPDEST PUSH2 0x5A9 DUP3 DUP3 DUP6 PUSH2 0x4E9 JUMP JUMPDEST PUSH0 PUSH1 0x20 SWAP1 POP PUSH1 0x1F DUP4 GT PUSH1 0x1 DUP2 EQ PUSH2 0x5DA JUMPI PUSH0 DUP5 ISZERO PUSH2 0x5C8 JUMPI DUP3 DUP8 ADD MLOAD SWAP1 POP JUMPDEST PUSH2 0x5D2 DUP6 DUP3 PUSH2 0x557 JUMP JUMPDEST DUP7 SSTORE POP PUSH2 0x639 JUMP JUMPDEST PUSH1 0x1F NOT DUP5 AND PUSH2 0x5E8 DUP7 PUSH2 0x3D5 JUMP JUMPDEST PUSH0 JUMPDEST DUP3 DUP2 LT ISZERO PUSH2 0x60F JUMPI DUP5 DUP10 ADD MLOAD DUP3 SSTORE PUSH1 0x1 DUP3 ADD SWAP2 POP PUSH1 0x20 DUP6 ADD SWAP5 POP PUSH1 0x20 DUP2 ADD SWAP1 POP PUSH2 0x5EA JUMP JUMPDEST DUP7 DUP4 LT ISZERO PUSH2 0x62C JUMPI DUP5 DUP10 ADD MLOAD PUSH2 0x628 PUSH1 0x1F DUP10 AND DUP3 PUSH2 0x53B JUMP JUMPDEST DUP4 SSTORE POP JUMPDEST PUSH1 0x1 PUSH1 0x2 DUP9 MUL ADD DUP9 SSTORE POP POP POP JUMPDEST POP POP POP POP POP POP JUMP JUMPDEST PUSH0 DUP3 DUP3 MSTORE PUSH1 0x20 DUP3 ADD SWAP1 POP SWAP3 SWAP2 POP POP JUMP JUMPDEST PUSH0 PUSH2 0x65B DUP3 PUSH2 0x36E JUMP JUMPDEST PUSH2 0x665 DUP2 DUP6 PUSH2 0x641 JUMP JUMPDEST SWAP4 POP PUSH2 0x675 DUP2 DUP6 PUSH1 0x20 DUP7 ADD PUSH2 0x298 JUMP JUMPDEST PUSH2 0x67E DUP2 PUSH2 0x1E0 JUMP JUMPDEST DUP5 ADD SWAP2 POP POP SWAP3 SWAP2 POP POP JUMP JUMPDEST PUSH0 PUSH1 0x40 DUP3 ADD SWAP1 POP DUP2 DUP2 SUB PUSH0 DUP4 ADD MSTORE PUSH2 0x6A1 DUP2 DUP6 PUSH2 0x651 JUMP JUMPDEST SWAP1 POP DUP2 DUP2 SUB PUSH1 0x20 DUP4 ADD MSTORE PUSH2 0x6B5 DUP2 DUP5 PUSH2 0x651 JUMP JUMPDEST SWAP1 POP SWAP4 SWAP3 POP POP POP JUMP JUMPDEST PUSH32 0x4E487B7100000000000000000000000000000000000000000000000000000000 PUSH0 MSTORE PUSH1 0x51 PUSH1 0x4 MSTORE PUSH1 0x24 PUSH0 REVERT JUMPDEST PUSH2 0xE5C DUP1 PUSH2 0x6F8 PUSH0 CODECOPY PUSH0 RETURN INVALID PUSH1 0x80 PUSH1 0x40 MSTORE CALLVALUE DUP1 ISZERO PUSH2 0xF JUMPI PUSH0 DUP1 REVERT JUMPDEST POP PUSH1 0x4 CALLDATASIZE LT PUSH2 0x86 JUMPI PUSH0 CALLDATALOAD PUSH1 0xE0 SHR DUP1 PUSH4 0x78F2650C GT PUSH2 0x59 JUMPI DUP1 PUSH4 0x78F2650C EQ PUSH2 0x100 JUMPI DUP1 PUSH4 0x971F7B91 EQ PUSH2 0x11E JUMPI DUP1 PUSH4 0xCDC55D59 EQ PUSH2 0x13C JUMPI DUP1 PUSH4 0xFA07A683 EQ PUSH2 0x15A JUMPI PUSH2 0x86 JUMP JUMPDEST DUP1 PUSH4 0x6FDDE03 EQ PUSH2 0x8A JUMPI DUP1 PUSH4 0x25D545D1 EQ PUSH2 0xA8 JUMPI DUP1 PUSH4 0x262A9DFF EQ PUSH2 0xC4 JUMPI DUP1 PUSH4 0x73BB329C EQ PUSH2 0xE2 JUMPI JUMPDEST PUSH0 DUP1 REVERT JUMPDEST PUSH2 0x92 PUSH2 0x178 JUMP JUMPDEST PUSH1 0x40 MLOAD PUSH2 0x9F SWAP2 SWAP1 PUSH2 0x84B JUMP JUMPDEST PUSH1 0x40 MLOAD DUP1 SWAP2 SUB SWAP1 RETURN JUMPDEST PUSH2 0xC2 PUSH1 0x4 DUP1 CALLDATASIZE SUB DUP2 ADD SWAP1 PUSH2 0xBD SWAP2 SWAP1 PUSH2 0x9A8 JUMP JUMPDEST PUSH2 0x203 JUMP JUMPDEST STOP JUMPDEST PUSH2 0xCC PUSH2 0x2DB JUMP JUMPDEST PUSH1 0x40 MLOAD PUSH2 0xD9 SWAP2 SWAP1 PUSH2 0xA07 JUMP JUMPDEST PUSH1 0x40 MLOAD DUP1 SWAP2 SUB SWAP1 RETURN JUMPDEST PUSH2 0xEA PUSH2 0x2E1 JUMP JUMPDEST PUSH1 0x40 MLOAD PUSH2 0xF7 SWAP2 SWAP1 PUSH2 0xA5F JUMP JUMPDEST PUSH1 0x40 MLOAD DUP1 SWAP2 SUB SWAP1 RETURN JUMPDEST PUSH2 0x108 PUSH2 0x354 JUMP JUMPDEST PUSH1 0x40 MLOAD PUSH2 0x115 SWAP2 SWAP1 PUSH2 0xA5F JUMP JUMPDEST PUSH1 0x40 MLOAD DUP1 SWAP2 SUB SWAP1 RETURN JUMPDEST PUSH2 0x126 PUSH2 0x35B JUMP JUMPDEST PUSH1 0x40 MLOAD PUSH2 0x133 SWAP2 SWAP1 PUSH2 0xA5F JUMP JUMPDEST PUSH1 0x40 MLOAD DUP1 SWAP2 SUB SWAP1 RETURN JUMPDEST PUSH2 0x144 PUSH2 0x380 JUMP JUMPDEST PUSH1 0x40 MLOAD PUSH2 0x151 SWAP2 SWAP1 PUSH2 0x84B JUMP JUMPDEST PUSH1 0x40 MLOAD DUP1 SWAP2 SUB SWAP1 RETURN JUMPDEST PUSH2 0x162 PUSH2 0x554 JUMP JUMPDEST PUSH1 0x40 MLOAD PUSH2 0x16F SWAP2 SWAP1 PUSH2 0xA5F JUMP JUMPDEST PUSH1 0x40 MLOAD DUP1 SWAP2 SUB SWAP1 RETURN JUMPDEST PUSH0 DUP1 SLOAD PUSH2 0x184 SWAP1 PUSH2 0xAA5 JUMP JUMPDEST DUP1 PUSH1 0x1F ADD PUSH1 0x20 DUP1 SWAP2 DIV MUL PUSH1 0x20 ADD PUSH1 0x40 MLOAD SWAP1 DUP2 ADD PUSH1 0x40 MSTORE DUP1 SWAP3 SWAP2 SWAP1 DUP2 DUP2 MSTORE PUSH1 0x20 ADD DUP3 DUP1 SLOAD PUSH2 0x1B0 SWAP1 PUSH2 0xAA5 JUMP JUMPDEST DUP1 ISZERO PUSH2 0x1FB JUMPI DUP1 PUSH1 0x1F LT PUSH2 0x1D2 JUMPI PUSH2 0x100 DUP1 DUP4 SLOAD DIV MUL DUP4 MSTORE SWAP2 PUSH1 0x20 ADD SWAP2 PUSH2 0x1FB JUMP JUMPDEST DUP3 ADD SWAP2 SWAP1 PUSH0 MSTORE PUSH1 0x20 PUSH0 KECCAK256 SWAP1 JUMPDEST DUP2 SLOAD DUP2 MSTORE SWAP1 PUSH1 0x1 ADD SWAP1 PUSH1 0x20 ADD DUP1 DUP4 GT PUSH2 0x1DE JUMPI DUP3 SWAP1 SUB PUSH1 0x1F AND DUP3 ADD SWAP2 JUMPDEST POP POP POP POP POP DUP2 JUMP JUMPDEST DUP1 PUSH0 SWAP1 DUP2 PUSH2 0x211 SWAP2 SWAP1 PUSH2 0xC72 JUMP JUMPDEST POP PUSH2 0x2D8 PUSH1 0x40 MLOAD DUP1 PUSH1 0x40 ADD PUSH1 0x40 MSTORE DUP1 PUSH1 0x19 DUP2 MSTORE PUSH1 0x20 ADD PUSH32 0x6E616D6520686173206265656E206368616E67656420746F2000000000000000 DUP2 MSTORE POP PUSH0 DUP1 SLOAD PUSH2 0x257 SWAP1 PUSH2 0xAA5 JUMP JUMPDEST DUP1 PUSH1 0x1F ADD PUSH1 0x20 DUP1 SWAP2 DIV MUL PUSH1 0x20 ADD PUSH1 0x40 MLOAD SWAP1 DUP2 ADD PUSH1 0x40 MSTORE DUP1 SWAP3 SWAP2 SWAP1 DUP2 DUP2 MSTORE PUSH1 0x20 ADD DUP3 DUP1 SLOAD PUSH2 0x283 SWAP1 PUSH2 0xAA5 JUMP JUMPDEST DUP1 ISZERO PUSH2 0x2CE JUMPI DUP1 PUSH1 0x1F LT PUSH2 0x2A5 JUMPI PUSH2 0x100 DUP1 DUP4 SLOAD DIV MUL DUP4 MSTORE SWAP2 PUSH1 0x20 ADD SWAP2 PUSH2 0x2CE JUMP JUMPDEST DUP3 ADD SWAP2 SWAP1 PUSH0 MSTORE PUSH1 0x20 PUSH0 KECCAK256 SWAP1 JUMPDEST DUP2 SLOAD DUP2 MSTORE SWAP1 PUSH1 0x1 ADD SWAP1 PUSH1 0x20 ADD DUP1 DUP4 GT PUSH2 0x2B1 JUMPI DUP3 SWAP1 SUB PUSH1 0x1F AND DUP3 ADD SWAP2 JUMPDEST POP POP POP POP POP PUSH2 0x5DB JUMP JUMPDEST POP JUMP JUMPDEST PUSH1 0x1 SLOAD DUP2 JUMP JUMPDEST PUSH0 ADDRESS PUSH20 0xFFFFFFFFFFFFFFFFFFFFFFFFFFFFFFFFFFFFFFFF AND PUSH4 0x78F2650C PUSH1 0x40 MLOAD DUP2 PUSH4 0xFFFFFFFF AND PUSH1 0xE0 SHL DUP2 MSTORE PUSH1 0x4 ADD PUSH1 0x20 PUSH1 0x40 MLOAD DUP1 DUP4 SUB DUP2 DUP7 GAS STATICCALL ISZERO DUP1 ISZERO PUSH2 0x32B JUMPI RETURNDATASIZE PUSH0 DUP1 RETURNDATACOPY RETURNDATASIZE PUSH0 REVERT JUMPDEST POP POP POP POP PUSH1 0x40 MLOAD RETURNDATASIZE PUSH1 0x1F NOT PUSH1 0x1F DUP3 ADD AND DUP3 ADD DUP1 PUSH1 0x40 MSTORE POP DUP2 ADD SWAP1 PUSH2 0x34F SWAP2 SWAP1 PUSH2 0xD6B JUMP JUMPDEST SWAP1 POP SWAP1 JUMP JUMPDEST PUSH0 ADDRESS SWAP1 POP SWAP1 JUMP JUMPDEST PUSH1 0x2 PUSH0 SWAP1 SLOAD SWAP1 PUSH2 0x100 EXP SWAP1 DIV PUSH20 0xFFFFFFFFFFFFFFFFFFFFFFFFFFFFFFFFFFFFFFFF AND DUP2 JUMP JUMPDEST PUSH1 0x60 PUSH2 0x3C0 PUSH1 0x40 MLOAD DUP1 PUSH1 0x40 ADD PUSH1 0x40 MSTORE DUP1 PUSH1 0xB DUP2 MSTORE PUSH1 0x20 ADD PUSH32 0x68656C6C6F20776F726C64000000000000000000000000000000000000000000 DUP2 MSTORE POP PUSH2 0x677 JUMP JUMPDEST PUSH2 0x486 PUSH1 0x40 MLOAD DUP1 PUSH1 0x40 ADD PUSH1 0x40 MSTORE DUP1 PUSH1 0x5 DUP2 MSTORE PUSH1 0x20 ADD PUSH32 0x6E616D653A000000000000000000000000000000000000000000000000000000 DUP2 MSTORE POP PUSH0 DUP1 SLOAD PUSH2 0x405 SWAP1 PUSH2 0xAA5 JUMP JUMPDEST DUP1 PUSH1 0x1F ADD PUSH1 0x20 DUP1 SWAP2 DIV MUL PUSH1 0x20 ADD PUSH1 0x40 MLOAD SWAP1 DUP2 ADD PUSH1 0x40 MSTORE DUP1 SWAP3 SWAP2 SWAP1 DUP2 DUP2 MSTORE PUSH1 0x20 ADD DUP3 DUP1 SLOAD PUSH2 0x431 SWAP1 PUSH2 0xAA5 JUMP JUMPDEST DUP1 ISZERO PUSH2 0x47C JUMPI DUP1 PUSH1 0x1F LT PUSH2 0x453 JUMPI PUSH2 0x100 DUP1 DUP4 SLOAD DIV MUL DUP4 MSTORE SWAP2 PUSH1 0x20 ADD SWAP2 PUSH2 0x47C JUMP JUMPDEST DUP3 ADD SWAP2 SWAP1 PUSH0 MSTORE PUSH1 0x20 PUSH0 KECCAK256 SWAP1 JUMPDEST DUP2 SLOAD DUP2 MSTORE SWAP1 PUSH1 0x1 ADD SWAP1 PUSH1 0x20 ADD DUP1 DUP4 GT PUSH2 0x45F JUMPI DUP3 SWAP1 SUB PUSH1 0x1F AND DUP3 ADD SWAP2 JUMPDEST POP POP POP POP POP PUSH2 0x5DB JUMP JUMPDEST PUSH2 0x4C7 PUSH1 0x40 MLOAD DUP1 PUSH1 0x40 ADD PUSH1 0x40 MSTORE DUP1 PUSH1 0x4 DUP2 MSTORE PUSH1 0x20 ADD PUSH32 0x6167653A00000000000000000000000000000000000000000000000000000000 DUP2 MSTORE POP PUSH1 0x1 SLOAD PUSH2 0x710 JUMP JUMPDEST PUSH0 DUP1 SLOAD PUSH2 0x4D3 SWAP1 PUSH2 0xAA5 JUMP JUMPDEST DUP1 PUSH1 0x1F ADD PUSH1 0x20 DUP1 SWAP2 DIV MUL PUSH1 0x20 ADD PUSH1 0x40 MLOAD SWAP1 DUP2 ADD PUSH1 0x40 MSTORE DUP1 SWAP3 SWAP2 SWAP1 DUP2 DUP2 MSTORE PUSH1 0x20 ADD DUP3 DUP1 SLOAD PUSH2 0x4FF SWAP1 PUSH2 0xAA5 JUMP JUMPDEST DUP1 ISZERO PUSH2 0x54A JUMPI DUP1 PUSH1 0x1F LT PUSH2 0x521 JUMPI PUSH2 0x100 DUP1 DUP4 SLOAD DIV MUL DUP4 MSTORE SWAP2 PUSH1 0x20 ADD SWAP2 PUSH2 0x54A JUMP JUMPDEST DUP3 ADD SWAP2 SWAP1 PUSH0 MSTORE PUSH1 0x20 PUSH0 KECCAK256 SWAP1 JUMPDEST DUP2 SLOAD DUP2 MSTORE SWAP1 PUSH1 0x1 ADD SWAP1 PUSH1 0x20 ADD DUP1 DUP4 GT PUSH2 0x52D JUMPI DUP3 SWAP1 SUB PUSH1 0x1F AND DUP3 ADD SWAP2 JUMPDEST POP POP POP POP POP SWAP1 POP SWAP1 JUMP JUMPDEST PUSH0 CALLER PUSH1 0x2 PUSH0 PUSH2 0x100 EXP DUP2 SLOAD DUP2 PUSH20 0xFFFFFFFFFFFFFFFFFFFFFFFFFFFFFFFFFFFFFFFF MUL NOT AND SWAP1 DUP4 PUSH20 0xFFFFFFFFFFFFFFFFFFFFFFFFFFFFFFFFFFFFFFFF AND MUL OR SWAP1 SSTORE POP PUSH1 0x2 PUSH0 SWAP1 SLOAD SWAP1 PUSH2 0x100 EXP SWAP1 DIV PUSH20 0xFFFFFFFFFFFFFFFFFFFFFFFFFFFFFFFFFFFFFFFF AND SWAP1 POP SWAP1 JUMP JUMPDEST PUSH0 PUSH11 0x636F6E736F6C652E6C6F67 SWAP1 POP PUSH0 DUP1 DUP4 MLOAD PUSH1 0x20 DUP6 ADD DUP5 GAS STATICCALL POP POP POP JUMP JUMPDEST PUSH2 0x673 DUP3 DUP3 PUSH1 0x40 MLOAD PUSH1 0x24 ADD PUSH2 0x5F1 SWAP3 SWAP2 SWAP1 PUSH2 0xD96 JUMP JUMPDEST PUSH1 0x40 MLOAD PUSH1 0x20 DUP2 DUP4 SUB SUB DUP2 MSTORE SWAP1 PUSH1 0x40 MSTORE PUSH32 0x4B5C427700000000000000000000000000000000000000000000000000000000 PUSH28 0xFFFFFFFFFFFFFFFFFFFFFFFFFFFFFFFFFFFFFFFFFFFFFFFFFFFFFFFF NOT AND PUSH1 0x20 DUP3 ADD DUP1 MLOAD PUSH28 0xFFFFFFFFFFFFFFFFFFFFFFFFFFFFFFFFFFFFFFFFFFFFFFFFFFFFFFFF DUP4 DUP2 DUP4 AND OR DUP4 MSTORE POP POP POP POP PUSH2 0x7AC JUMP JUMPDEST POP POP JUMP JUMPDEST PUSH2 0x70D DUP2 PUSH1 0x40 MLOAD PUSH1 0x24 ADD PUSH2 0x68B SWAP2 SWAP1 PUSH2 0x84B JUMP JUMPDEST PUSH1 0x40 MLOAD PUSH1 0x20 DUP2 DUP4 SUB SUB DUP2 MSTORE SWAP1 PUSH1 0x40 MSTORE PUSH32 0x41304FAC00000000000000000000000000000000000000000000000000000000 PUSH28 0xFFFFFFFFFFFFFFFFFFFFFFFFFFFFFFFFFFFFFFFFFFFFFFFFFFFFFFFF NOT AND PUSH1 0x20 DUP3 ADD DUP1 MLOAD PUSH28 0xFFFFFFFFFFFFFFFFFFFFFFFFFFFFFFFFFFFFFFFFFFFFFFFFFFFFFFFF DUP4 DUP2 DUP4 AND OR DUP4 MSTORE POP POP POP POP PUSH2 0x7AC JUMP JUMPDEST POP JUMP JUMPDEST PUSH2 0x7A8 DUP3 DUP3 PUSH1 0x40 MLOAD PUSH1 0x24 ADD PUSH2 0x726 SWAP3 SWAP2 SWAP1 PUSH2 0xDCB JUMP JUMPDEST PUSH1 0x40 MLOAD PUSH1 0x20 DUP2 DUP4 SUB SUB DUP2 MSTORE SWAP1 PUSH1 0x40 MSTORE PUSH32 0xB60E72CC00000000000000000000000000000000000000000000000000000000 PUSH28 0xFFFFFFFFFFFFFFFFFFFFFFFFFFFFFFFFFFFFFFFFFFFFFFFFFFFFFFFF NOT AND PUSH1 0x20 DUP3 ADD DUP1 MLOAD PUSH28 0xFFFFFFFFFFFFFFFFFFFFFFFFFFFFFFFFFFFFFFFFFFFFFFFFFFFFFFFF DUP4 DUP2 DUP4 AND OR DUP4 MSTORE POP POP POP POP PUSH2 0x7AC JUMP JUMPDEST POP POP JUMP JUMPDEST PUSH2 0x7C3 DUP2 PUSH2 0x7BB PUSH2 0x5BC PUSH2 0x7C6 JUMP JUMPDEST PUSH4 0xFFFFFFFF AND JUMP JUMPDEST POP JUMP JUMPDEST PUSH2 0x7D1 DUP2 SWAP1 POP SWAP2 SWAP1 POP JUMP JUMPDEST PUSH2 0x7D9 PUSH2 0xDF9 JUMP JUMPDEST JUMP JUMPDEST PUSH0 DUP2 MLOAD SWAP1 POP SWAP2 SWAP1 POP JUMP JUMPDEST PUSH0 DUP3 DUP3 MSTORE PUSH1 0x20 DUP3 ADD SWAP1 POP SWAP3 SWAP2 POP POP JUMP JUMPDEST DUP3 DUP2 DUP4 MCOPY PUSH0 DUP4 DUP4 ADD MSTORE POP POP POP JUMP JUMPDEST PUSH0 PUSH1 0x1F NOT PUSH1 0x1F DUP4 ADD AND SWAP1 POP SWAP2 SWAP1 POP JUMP JUMPDEST PUSH0 PUSH2 0x81D DUP3 PUSH2 0x7DB JUMP JUMPDEST PUSH2 0x827 DUP2 DUP6 PUSH2 0x7E5 JUMP JUMPDEST SWAP4 POP PUSH2 0x837 DUP2 DUP6 PUSH1 0x20 DUP7 ADD PUSH2 0x7F5 JUMP JUMPDEST PUSH2 0x840 DUP2 PUSH2 0x803 JUMP JUMPDEST DUP5 ADD SWAP2 POP POP SWAP3 SWAP2 POP POP JUMP JUMPDEST PUSH0 PUSH1 0x20 DUP3 ADD SWAP1 POP DUP2 DUP2 SUB PUSH0 DUP4 ADD MSTORE PUSH2 0x863 DUP2 DUP5 PUSH2 0x813 JUMP JUMPDEST SWAP1 POP SWAP3 SWAP2 POP POP JUMP JUMPDEST PUSH0 PUSH1 0x40 MLOAD SWAP1 POP SWAP1 JUMP JUMPDEST PUSH0 DUP1 REVERT JUMPDEST PUSH0 DUP1 REVERT JUMPDEST PUSH0 DUP1 REVERT JUMPDEST PUSH0 DUP1 REVERT JUMPDEST PUSH32 0x4E487B7100000000000000000000000000000000000000000000000000000000 PUSH0 MSTORE PUSH1 0x41 PUSH1 0x4 MSTORE PUSH1 0x24 PUSH0 REVERT JUMPDEST PUSH2 0x8BA DUP3 PUSH2 0x803 JUMP JUMPDEST DUP2 ADD DUP2 DUP2 LT PUSH8 0xFFFFFFFFFFFFFFFF DUP3 GT OR ISZERO PUSH2 0x8D9 JUMPI PUSH2 0x8D8 PUSH2 0x884 JUMP JUMPDEST JUMPDEST DUP1 PUSH1 0x40 MSTORE POP POP POP JUMP JUMPDEST PUSH0 PUSH2 0x8EB PUSH2 0x86B JUMP JUMPDEST SWAP1 POP PUSH2 0x8F7 DUP3 DUP3 PUSH2 0x8B1 JUMP JUMPDEST SWAP2 SWAP1 POP JUMP JUMPDEST PUSH0 PUSH8 0xFFFFFFFFFFFFFFFF DUP3 GT ISZERO PUSH2 0x916 JUMPI PUSH2 0x915 PUSH2 0x884 JUMP JUMPDEST JUMPDEST PUSH2 0x91F DUP3 PUSH2 0x803 JUMP JUMPDEST SWAP1 POP PUSH1 0x20 DUP2 ADD SWAP1 POP SWAP2 SWAP1 POP JUMP JUMPDEST DUP3 DUP2 DUP4 CALLDATACOPY PUSH0 DUP4 DUP4 ADD MSTORE POP POP POP JUMP JUMPDEST PUSH0 PUSH2 0x94C PUSH2 0x947 DUP5 PUSH2 0x8FC JUMP JUMPDEST PUSH2 0x8E2 JUMP JUMPDEST SWAP1 POP DUP3 DUP2 MSTORE PUSH1 0x20 DUP2 ADD DUP5 DUP5 DUP5 ADD GT ISZERO PUSH2 0x968 JUMPI PUSH2 0x967 PUSH2 0x880 JUMP JUMPDEST JUMPDEST PUSH2 0x973 DUP5 DUP3 DUP6 PUSH2 0x92C JUMP JUMPDEST POP SWAP4 SWAP3 POP POP POP JUMP JUMPDEST PUSH0 DUP3 PUSH1 0x1F DUP4 ADD SLT PUSH2 0x98F JUMPI PUSH2 0x98E PUSH2 0x87C JUMP JUMPDEST JUMPDEST DUP2 CALLDATALOAD PUSH2 0x99F DUP5 DUP3 PUSH1 0x20 DUP7 ADD PUSH2 0x93A JUMP JUMPDEST SWAP2 POP POP SWAP3 SWAP2 POP POP JUMP JUMPDEST PUSH0 PUSH1 0x20 DUP3 DUP5 SUB SLT ISZERO PUSH2 0x9BD JUMPI PUSH2 0x9BC PUSH2 0x874 JUMP JUMPDEST JUMPDEST PUSH0 DUP3 ADD CALLDATALOAD PUSH8 0xFFFFFFFFFFFFFFFF DUP2 GT ISZERO PUSH2 0x9DA JUMPI PUSH2 0x9D9 PUSH2 0x878 JUMP JUMPDEST JUMPDEST PUSH2 0x9E6 DUP5 DUP3 DUP6 ADD PUSH2 0x97B JUMP JUMPDEST SWAP2 POP POP SWAP3 SWAP2 POP POP JUMP JUMPDEST PUSH0 DUP2 SWAP1 POP SWAP2 SWAP1 POP JUMP JUMPDEST PUSH2 0xA01 DUP2 PUSH2 0x9EF JUMP JUMPDEST DUP3 MSTORE POP POP JUMP JUMPDEST PUSH0 PUSH1 0x20 DUP3 ADD SWAP1 POP PUSH2 0xA1A PUSH0 DUP4 ADD DUP5 PUSH2 0x9F8 JUMP JUMPDEST SWAP3 SWAP2 POP POP JUMP JUMPDEST PUSH0 PUSH20 0xFFFFFFFFFFFFFFFFFFFFFFFFFFFFFFFFFFFFFFFF DUP3 AND SWAP1 POP SWAP2 SWAP1 POP JUMP JUMPDEST PUSH0 PUSH2 0xA49 DUP3 PUSH2 0xA20 JUMP JUMPDEST SWAP1 POP SWAP2 SWAP1 POP JUMP JUMPDEST PUSH2 0xA59 DUP2 PUSH2 0xA3F JUMP JUMPDEST DUP3 MSTORE POP POP JUMP JUMPDEST PUSH0 PUSH1 0x20 DUP3 ADD SWAP1 POP PUSH2 0xA72 PUSH0 DUP4 ADD DUP5 PUSH2 0xA50 JUMP JUMPDEST SWAP3 SWAP2 POP POP JUMP JUMPDEST PUSH32 0x4E487B7100000000000000000000000000000000000000000000000000000000 PUSH0 MSTORE PUSH1 0x22 PUSH1 0x4 MSTORE PUSH1 0x24 PUSH0 REVERT JUMPDEST PUSH0 PUSH1 0x2 DUP3 DIV SWAP1 POP PUSH1 0x1 DUP3 AND DUP1 PUSH2 0xABC JUMPI PUSH1 0x7F DUP3 AND SWAP2 POP JUMPDEST PUSH1 0x20 DUP3 LT DUP2 SUB PUSH2 0xACF JUMPI PUSH2 0xACE PUSH2 0xA78 JUMP JUMPDEST JUMPDEST POP SWAP2 SWAP1 POP JUMP JUMPDEST PUSH0 DUP2 SWAP1 POP DUP2 PUSH0 MSTORE PUSH1 0x20 PUSH0 KECCAK256 SWAP1 POP SWAP2 SWAP1 POP JUMP JUMPDEST PUSH0 PUSH1 0x20 PUSH1 0x1F DUP4 ADD DIV SWAP1 POP SWAP2 SWAP1 POP JUMP JUMPDEST PUSH0 DUP3 DUP3 SHL SWAP1 POP SWAP3 SWAP2 POP POP JUMP JUMPDEST PUSH0 PUSH1 0x8 DUP4 MUL PUSH2 0xB31 PUSH32 0xFFFFFFFFFFFFFFFFFFFFFFFFFFFFFFFFFFFFFFFFFFFFFFFFFFFFFFFFFFFFFFFF DUP3 PUSH2 0xAF6 JUMP JUMPDEST PUSH2 0xB3B DUP7 DUP4 PUSH2 0xAF6 JUMP JUMPDEST SWAP6 POP DUP1 NOT DUP5 AND SWAP4 POP DUP1 DUP7 AND DUP5 OR SWAP3 POP POP POP SWAP4 SWAP3 POP POP POP JUMP JUMPDEST PUSH0 DUP2 SWAP1 POP SWAP2 SWAP1 POP JUMP JUMPDEST PUSH0 PUSH2 0xB76 PUSH2 0xB71 PUSH2 0xB6C DUP5 PUSH2 0x9EF JUMP JUMPDEST PUSH2 0xB53 JUMP JUMPDEST PUSH2 0x9EF JUMP JUMPDEST SWAP1 POP SWAP2 SWAP1 POP JUMP JUMPDEST PUSH0 DUP2 SWAP1 POP SWAP2 SWAP1 POP JUMP JUMPDEST PUSH2 0xB8F DUP4 PUSH2 0xB5C JUMP JUMPDEST PUSH2 0xBA3 PUSH2 0xB9B DUP3 PUSH2 0xB7D JUMP JUMPDEST DUP5 DUP5 SLOAD PUSH2 0xB02 JUMP JUMPDEST DUP3 SSTORE POP POP POP POP JUMP JUMPDEST PUSH0 SWAP1 JUMP JUMPDEST PUSH2 0xBB7 PUSH2 0xBAB JUMP JUMPDEST PUSH2 0xBC2 DUP2 DUP5 DUP5 PUSH2 0xB86 JUMP JUMPDEST POP POP POP JUMP JUMPDEST JUMPDEST DUP2 DUP2 LT ISZERO PUSH2 0xBE5 JUMPI PUSH2 0xBDA PUSH0 DUP3 PUSH2 0xBAF JUMP JUMPDEST PUSH1 0x1 DUP2 ADD SWAP1 POP PUSH2 0xBC8 JUMP JUMPDEST POP POP JUMP JUMPDEST PUSH1 0x1F DUP3 GT ISZERO PUSH2 0xC2A JUMPI PUSH2 0xBFB DUP2 PUSH2 0xAD5 JUMP JUMPDEST PUSH2 0xC04 DUP5 PUSH2 0xAE7 JUMP JUMPDEST DUP2 ADD PUSH1 0x20 DUP6 LT ISZERO PUSH2 0xC13 JUMPI DUP2 SWAP1 POP JUMPDEST PUSH2 0xC27 PUSH2 0xC1F DUP6 PUSH2 0xAE7 JUMP JUMPDEST DUP4 ADD DUP3 PUSH2 0xBC7 JUMP JUMPDEST POP POP JUMPDEST POP POP POP JUMP JUMPDEST PUSH0 DUP3 DUP3 SHR SWAP1 POP SWAP3 SWAP2 POP POP JUMP JUMPDEST PUSH0 PUSH2 0xC4A PUSH0 NOT DUP5 PUSH1 0x8 MUL PUSH2 0xC2F JUMP JUMPDEST NOT DUP1 DUP4 AND SWAP2 POP POP SWAP3 SWAP2 POP POP JUMP JUMPDEST PUSH0 PUSH2 0xC62 DUP4 DUP4 PUSH2 0xC3B JUMP JUMPDEST SWAP2 POP DUP3 PUSH1 0x2 MUL DUP3 OR SWAP1 POP SWAP3 SWAP2 POP POP JUMP JUMPDEST PUSH2 0xC7B DUP3 PUSH2 0x7DB JUMP JUMPDEST PUSH8 0xFFFFFFFFFFFFFFFF DUP2 GT ISZERO PUSH2 0xC94 JUMPI PUSH2 0xC93 PUSH2 0x884 JUMP JUMPDEST JUMPDEST PUSH2 0xC9E DUP3 SLOAD PUSH2 0xAA5 JUMP JUMPDEST PUSH2 0xCA9 DUP3 DUP3 DUP6 PUSH2 0xBE9 JUMP JUMPDEST PUSH0 PUSH1 0x20 SWAP1 POP PUSH1 0x1F DUP4 GT PUSH1 0x1 DUP2 EQ PUSH2 0xCDA JUMPI PUSH0 DUP5 ISZERO PUSH2 0xCC8 JUMPI DUP3 DUP8 ADD MLOAD SWAP1 POP JUMPDEST PUSH2 0xCD2 DUP6 DUP3 PUSH2 0xC57 JUMP JUMPDEST DUP7 SSTORE POP PUSH2 0xD39 JUMP JUMPDEST PUSH1 0x1F NOT DUP5 AND PUSH2 0xCE8 DUP7 PUSH2 0xAD5 JUMP JUMPDEST PUSH0 JUMPDEST DUP3 DUP2 LT ISZERO PUSH2 0xD0F JUMPI DUP5 DUP10 ADD MLOAD DUP3 SSTORE PUSH1 0x1 DUP3 ADD SWAP2 POP PUSH1 0x20 DUP6 ADD SWAP5 POP PUSH1 0x20 DUP2 ADD SWAP1 POP PUSH2 0xCEA JUMP JUMPDEST DUP7 DUP4 LT ISZERO PUSH2 0xD2C JUMPI DUP5 DUP10 ADD MLOAD PUSH2 0xD28 PUSH1 0x1F DUP10 AND DUP3 PUSH2 0xC3B JUMP JUMPDEST DUP4 SSTORE POP JUMPDEST PUSH1 0x1 PUSH1 0x2 DUP9 MUL ADD DUP9 SSTORE POP POP POP JUMPDEST POP POP POP POP POP POP JUMP JUMPDEST PUSH2 0xD4A DUP2 PUSH2 0xA3F JUMP JUMPDEST DUP2 EQ PUSH2 0xD54 JUMPI PUSH0 DUP1 REVERT JUMPDEST POP JUMP JUMPDEST PUSH0 DUP2 MLOAD SWAP1 POP PUSH2 0xD65 DUP2 PUSH2 0xD41 JUMP JUMPDEST SWAP3 SWAP2 POP POP JUMP JUMPDEST PUSH0 PUSH1 0x20 DUP3 DUP5 SUB SLT ISZERO PUSH2 0xD80 JUMPI PUSH2 0xD7F PUSH2 0x874 JUMP JUMPDEST JUMPDEST PUSH0 PUSH2 0xD8D DUP5 DUP3 DUP6 ADD PUSH2 0xD57 JUMP JUMPDEST SWAP2 POP POP SWAP3 SWAP2 POP POP JUMP JUMPDEST PUSH0 PUSH1 0x40 DUP3 ADD SWAP1 POP DUP2 DUP2 SUB PUSH0 DUP4 ADD MSTORE PUSH2 0xDAE DUP2 DUP6 PUSH2 0x813 JUMP JUMPDEST SWAP1 POP DUP2 DUP2 SUB PUSH1 0x20 DUP4 ADD MSTORE PUSH2 0xDC2 DUP2 DUP5 PUSH2 0x813 JUMP JUMPDEST SWAP1 POP SWAP4 SWAP3 POP POP POP JUMP JUMPDEST PUSH0 PUSH1 0x40 DUP3 ADD SWAP1 POP DUP2 DUP2 SUB PUSH0 DUP4 ADD MSTORE PUSH2 0xDE3 DUP2 DUP6 PUSH2 0x813 JUMP JUMPDEST SWAP1 POP PUSH2 0xDF2 PUSH1 0x20 DUP4 ADD DUP5 PUSH2 0x9F8 JUMP JUMPDEST SWAP4 SWAP3 POP POP POP JUMP JUMPDEST PUSH32 0x4E487B7100000000000000000000000000000000000000000000000000000000 PUSH0 MSTORE PUSH1 0x51 PUSH1 0x4 MSTORE PUSH1 0x24 PUSH0 REVERT INVALID LOG2 PUSH5 0x6970667358 0x22 SLT KECCAK256 BYTE DUP5 0xAE 0x4B PUSH1 0x70 0xAF PUSH30 0x218544540AF06991B530D35D2CF8329A74722DFAC6964A7264736F6C6343 STOP ADDMOD BYTE STOP CALLER LOG2 PUSH5 0x6970667358 0x22 SLT KECCAK256 INVALID PREVRANDAO PC PUSH1 0x6C BALANCE 0x1F 0xC9 ISZERO JUMP 0x25 SWAP7 AND CHAINID 0xC6 0xA7 0xEF 0xB4 PUSH17 0x324EF6DCC7EDE343185D1EABA364736F6C PUSH4 0x4300081A STOP CALLER "
		},
		"gasEstimates": {
			"creation": {
				"codeDepositCost": "1157600",
				"executionCost": "1198",
				"totalCost": "1158798"
			},
			"external": {
				"getCreationCode()": "infinite"
			}
		},
		"methodIdentifiers": {
			"getCreationCode()": "00c194db"
		}
	},
	"abi": [
		{
			"inputs": [],
			"name": "getCreationCode",
			"outputs": [
				{
					"internalType": "bytes",
					"name": "",
					"type": "bytes"
				}
			],
			"stateMutability": "pure",
			"type": "function"
		}
	]
}